{
  "contractName": "Employee",
  "abi": [
    {
      "inputs": [
        {
          "internalType": "address",
          "name": "_admin",
          "type": "address"
        },
        {
          "internalType": "address",
          "name": "_employee_address",
          "type": "address"
        },
        {
          "internalType": "string",
          "name": "_name",
          "type": "string"
        },
        {
          "internalType": "string",
          "name": "_description",
          "type": "string"
        },
        {
          "internalType": "string",
          "name": "_location",
          "type": "string"
        }
      ],
      "payable": false,
      "stateMutability": "nonpayable",
      "type": "constructor"
    },
    {
      "constant": true,
      "inputs": [
        {
          "internalType": "uint256",
          "name": "",
          "type": "uint256"
        }
      ],
      "name": "overallEndorsement",
      "outputs": [
        {
          "internalType": "uint256",
          "name": "",
          "type": "uint256"
        }
      ],
      "payable": false,
      "stateMutability": "view",
      "type": "function"
    },
    {
      "constant": true,
      "inputs": [],
      "name": "getEmployeeInfo",
      "outputs": [
        {
          "internalType": "address",
          "name": "",
          "type": "address"
        },
        {
          "internalType": "string",
          "name": "",
          "type": "string"
        },
        {
          "internalType": "string",
          "name": "",
          "type": "string"
        },
        {
          "internalType": "string",
          "name": "",
          "type": "string"
        },
        {
          "internalType": "uint256",
          "name": "",
          "type": "uint256"
        },
        {
          "internalType": "uint256",
          "name": "",
          "type": "uint256"
        }
      ],
      "payable": false,
      "stateMutability": "view",
      "type": "function"
    },
    {
      "constant": false,
      "inputs": [
        {
          "internalType": "string",
          "name": "_name",
          "type": "string"
        },
        {
          "internalType": "string",
          "name": "_descrip",
          "type": "string"
        },
        {
          "internalType": "string",
          "name": "_location",
          "type": "string"
        }
      ],
      "name": "editInfo",
      "outputs": [],
      "payable": false,
      "stateMutability": "nonpayable",
      "type": "function"
    },
    {
      "constant": false,
      "inputs": [
        {
          "internalType": "string",
          "name": "_name",
          "type": "string"
        },
        {
          "internalType": "string",
          "name": "_experience",
          "type": "string"
        }
      ],
      "name": "addSkill",
      "outputs": [],
      "payable": false,
      "stateMutability": "nonpayable",
      "type": "function"
    },
    {
      "constant": false,
      "inputs": [
        {
          "internalType": "string",
          "name": "_name",
          "type": "string"
        },
        {
          "internalType": "uint256",
          "name": "_overall_percentage",
          "type": "uint256"
        },
        {
          "internalType": "string",
          "name": "_review",
          "type": "string"
        }
      ],
      "name": "endorseSkill",
      "outputs": [],
      "payable": false,
      "stateMutability": "nonpayable",
      "type": "function"
    },
    {
      "constant": true,
      "inputs": [],
      "name": "getSkillCount",
      "outputs": [
        {
          "internalType": "uint256",
          "name": "",
          "type": "uint256"
        }
      ],
      "payable": false,
      "stateMutability": "view",
      "type": "function"
    },
    {
      "constant": true,
      "inputs": [
        {
          "internalType": "uint256",
          "name": "_index",
          "type": "uint256"
        }
      ],
      "name": "getSkillByIndex",
      "outputs": [
        {
          "internalType": "string",
          "name": "",
          "type": "string"
        },
        {
          "internalType": "uint256",
          "name": "",
          "type": "uint256"
        },
        {
          "internalType": "string",
          "name": "",
          "type": "string"
        },
        {
          "internalType": "bool",
          "name": "",
          "type": "bool"
        },
        {
          "internalType": "address",
          "name": "",
          "type": "address"
        },
        {
          "internalType": "string",
          "name": "",
          "type": "string"
        },
        {
          "internalType": "bool",
          "name": "",
          "type": "bool"
        }
      ],
      "payable": false,
      "stateMutability": "view",
      "type": "function"
    },
    {
      "constant": false,
      "inputs": [
        {
          "internalType": "string",
          "name": "_name",
          "type": "string"
        }
      ],
      "name": "deleteSkill",
      "outputs": [],
      "payable": false,
      "stateMutability": "nonpayable",
      "type": "function"
    },
    {
      "constant": false,
      "inputs": [
        {
          "internalType": "string",
          "name": "_name",
          "type": "string"
        },
        {
          "internalType": "address",
          "name": "_organization",
          "type": "address"
        },
        {
          "internalType": "uint256",
          "name": "_score",
          "type": "uint256"
        }
      ],
      "name": "addCertification",
      "outputs": [],
      "payable": false,
      "stateMutability": "nonpayable",
      "type": "function"
    },
    {
      "constant": false,
      "inputs": [
        {
          "internalType": "string",
          "name": "_name",
          "type": "string"
        }
      ],
      "name": "endorseCertification",
      "outputs": [],
      "payable": false,
      "stateMutability": "nonpayable",
      "type": "function"
    },
    {
      "constant": true,
      "inputs": [],
      "name": "getCertificationCount",
      "outputs": [
        {
          "internalType": "uint256",
          "name": "",
          "type": "uint256"
        }
      ],
      "payable": false,
      "stateMutability": "view",
      "type": "function"
    },
    {
      "constant": true,
      "inputs": [
        {
          "internalType": "uint256",
          "name": "_index",
          "type": "uint256"
        }
      ],
      "name": "getCertificationByIndex",
      "outputs": [
        {
          "internalType": "string",
          "name": "",
          "type": "string"
        },
        {
          "internalType": "address",
          "name": "",
          "type": "address"
        },
        {
          "internalType": "uint256",
          "name": "",
          "type": "uint256"
        },
        {
          "internalType": "bool",
          "name": "",
          "type": "bool"
        },
        {
          "internalType": "bool",
          "name": "",
          "type": "bool"
        }
      ],
      "payable": false,
      "stateMutability": "view",
      "type": "function"
    },
    {
      "constant": false,
      "inputs": [
        {
          "internalType": "string",
          "name": "_name",
          "type": "string"
        }
      ],
      "name": "deleteCertification",
      "outputs": [],
      "payable": false,
      "stateMutability": "nonpayable",
      "type": "function"
    },
    {
      "constant": false,
      "inputs": [
        {
          "internalType": "string",
          "name": "_role",
          "type": "string"
        },
        {
          "internalType": "address",
          "name": "_organization",
          "type": "address"
        },
        {
          "internalType": "string",
          "name": "_startdate",
          "type": "string"
        },
        {
          "internalType": "string",
          "name": "_enddate",
          "type": "string"
        },
        {
          "internalType": "string",
          "name": "_description",
          "type": "string"
        }
      ],
      "name": "addWorkExp",
      "outputs": [],
      "payable": false,
      "stateMutability": "nonpayable",
      "type": "function"
    },
    {
      "constant": false,
      "inputs": [],
      "name": "endorseWorkExp",
      "outputs": [],
      "payable": false,
      "stateMutability": "nonpayable",
      "type": "function"
    },
    {
      "constant": true,
      "inputs": [],
      "name": "getWorkExpCount",
      "outputs": [
        {
          "internalType": "uint256",
          "name": "",
          "type": "uint256"
        }
      ],
      "payable": false,
      "stateMutability": "view",
      "type": "function"
    },
    {
      "constant": true,
      "inputs": [
        {
          "internalType": "uint256",
          "name": "_index",
          "type": "uint256"
        }
      ],
      "name": "getWorkExpByIndex",
      "outputs": [
        {
          "internalType": "string",
          "name": "",
          "type": "string"
        },
        {
          "internalType": "address",
          "name": "",
          "type": "address"
        },
        {
          "internalType": "string",
          "name": "",
          "type": "string"
        },
        {
          "internalType": "string",
          "name": "",
          "type": "string"
        },
        {
          "internalType": "bool",
          "name": "",
          "type": "bool"
        },
        {
          "internalType": "string",
          "name": "",
          "type": "string"
        },
        {
          "internalType": "bool",
          "name": "",
          "type": "bool"
        }
      ],
      "payable": false,
      "stateMutability": "view",
      "type": "function"
    },
    {
      "constant": false,
      "inputs": [
        {
          "internalType": "address",
          "name": "org",
          "type": "address"
        }
      ],
      "name": "deleteWorkExp",
      "outputs": [],
      "payable": false,
      "stateMutability": "nonpayable",
      "type": "function"
    }
  ],
  "bytecode": "0x60806040523480156200001157600080fd5b5060405162003aeb38038062003aeb833981810160405260a08110156200003757600080fd5b810190808051906020019092919080519060200190929190805160405193929190846401000000008211156200006c57600080fd5b838201915060208201858111156200008357600080fd5b8251866001820283011164010000000082111715620000a157600080fd5b8083526020830192505050908051906020019080838360005b83811015620000d7578082015181840152602081019050620000ba565b50505050905090810190601f168015620001055780820380516001836020036101000a031916815260200191505b50604052602001805160405193929190846401000000008211156200012957600080fd5b838201915060208201858111156200014057600080fd5b82518660018202830111640100000000821117156200015e57600080fd5b8083526020830192505050908051906020019080838360005b838110156200019457808201518184015260208101905062000177565b50505050905090810190601f168015620001c25780820380516001836020036101000a031916815260200191505b5060405260200180516040519392919084640100000000821115620001e657600080fd5b83820191506020820185811115620001fd57600080fd5b82518660018202830111640100000000821117156200021b57600080fd5b8083526020830192505050908051906020019080838360005b838110156200025157808201518184015260208101905062000234565b50505050905090810190601f1680156200027f5780820380516001836020036101000a031916815260200191505b50604052505050846000806101000a81548173ffffffffffffffffffffffffffffffffffffffff021916908373ffffffffffffffffffffffffffffffffffffffff1602179055508260069080519060200190620002de92919062000365565b5083600160006101000a81548173ffffffffffffffffffffffffffffffffffffffff021916908373ffffffffffffffffffffffffffffffffffffffff16021790555081600290805190602001906200033892919062000365565b5080600390805190602001906200035192919062000365565b506000600581905550505050505062000414565b828054600181600116156101000203166002900490600052602060002090601f016020900481019282601f10620003a857805160ff1916838001178555620003d9565b82800160010185558215620003d9579182015b82811115620003d8578251825591602001919060010190620003bb565b5b509050620003e89190620003ec565b5090565b6200041191905b808211156200040d576000816000905550600101620003f3565b5090565b90565b6136c780620004246000396000f3fe608060405234801561001057600080fd5b50600436106101165760003560e01c8063cf6431c6116100a2578063eda3467c11610071578063eda3467c14610b51578063f1d9efb214610c0c578063fc017f2514610eac578063fdb1036114611095578063fee7989e146111f157610116565b8063cf6431c6146106cc578063d57e0ad614610787578063d862ae87146109bb578063e260175114610b0d57610116565b806344f034ae116100e957806344f034ae146103e15780637b1d2d00146103eb5780637c067d8d146104d057806394fb3da714610512578063a3e3bf7d1461053057610116565b806305f53b291461011b5780632186879c14610139578063444fc662146101f457806344afd134146103c3575b600080fd5b6101236112e8565b6040518082815260200191505060405180910390f35b6101f26004803603602081101561014f57600080fd5b810190808035906020019064010000000081111561016c57600080fd5b82018360208201111561017e57600080fd5b803590602001918460018302840111640100000000831117156101a057600080fd5b91908080601f016020809104026020016040519081016040528093929190818152602001838380828437600081840152601f19601f8201169050808301925050505050505091929192905050506112f5565b005b6102206004803603602081101561020a57600080fd5b8101908080359060200190929190505050611450565b604051808060200188815260200180602001871515151581526020018673ffffffffffffffffffffffffffffffffffffffff1673ffffffffffffffffffffffffffffffffffffffff168152602001806020018515151515815260200184810384528b818151815260200191508051906020019080838360005b838110156102b4578082015181840152602081019050610299565b50505050905090810190601f1680156102e15780820380516001836020036101000a031916815260200191505b50848103835289818151815260200191508051906020019080838360005b8381101561031a5780820151818401526020810190506102ff565b50505050905090810190601f1680156103475780820380516001836020036101000a031916815260200191505b50848103825286818151815260200191508051906020019080838360005b83811015610380578082015181840152602081019050610365565b50505050905090810190601f1680156103ad5780820380516001836020036101000a031916815260200191505b509a505050505050505050505060405180910390f35b6103cb61152e565b6040518082815260200191505060405180910390f35b6103e961153b565b005b6104ce6004803603606081101561040157600080fd5b810190808035906020019064010000000081111561041e57600080fd5b82018360208201111561043057600080fd5b8035906020019184600183028401116401000000008311171561045257600080fd5b91908080601f016020809104026020016040519081016040528093929190818152602001838380828437600081840152601f19601f820116905080830192505050505050509192919290803573ffffffffffffffffffffffffffffffffffffffff16906020019092919080359060200190929190505050611634565b005b6104fc600480360360208110156104e657600080fd5b8101908080359060200190929190505050611863565b6040518082815260200191505060405180910390f35b61051a611884565b6040518082815260200191505060405180910390f35b610538611891565b604051808773ffffffffffffffffffffffffffffffffffffffff1673ffffffffffffffffffffffffffffffffffffffff168152602001806020018060200180602001868152602001858152602001848103845289818151815260200191508051906020019080838360005b838110156105be5780820151818401526020810190506105a3565b50505050905090810190601f1680156105eb5780820380516001836020036101000a031916815260200191505b50848103835288818151815260200191508051906020019080838360005b83811015610624578082015181840152602081019050610609565b50505050905090810190601f1680156106515780820380516001836020036101000a031916815260200191505b50848103825287818151815260200191508051906020019080838360005b8381101561068a57808201518184015260208101905061066f565b50505050905090810190601f1680156106b75780820380516001836020036101000a031916815260200191505b50995050505050505050505060405180910390f35b610785600480360360208110156106e257600080fd5b81019080803590602001906401000000008111156106ff57600080fd5b82018360208201111561071157600080fd5b8035906020019184600183028401116401000000008311171561073357600080fd5b91908080601f016020809104026020016040519081016040528093929190818152602001838380828437600081840152601f19601f820116905080830192505050505050509192919290505050611ab4565b005b6107b36004803603602081101561079d57600080fd5b8101908080359060200190929190505050611c00565b60405180806020018873ffffffffffffffffffffffffffffffffffffffff1673ffffffffffffffffffffffffffffffffffffffff168152602001806020018060200187151515158152602001806020018615151515815260200185810385528c818151815260200191508051906020019080838360005b8381101561084557808201518184015260208101905061082a565b50505050905090810190601f1680156108725780820380516001836020036101000a031916815260200191505b5085810384528a818151815260200191508051906020019080838360005b838110156108ab578082015181840152602081019050610890565b50505050905090810190601f1680156108d85780820380516001836020036101000a031916815260200191505b50858103835289818151815260200191508051906020019080838360005b838110156109115780820151818401526020810190506108f6565b50505050905090810190601f16801561093e5780820380516001836020036101000a031916815260200191505b50858103825287818151815260200191508051906020019080838360005b8381101561097757808201518184015260208101905061095c565b50505050905090810190601f1680156109a45780820380516001836020036101000a031916815260200191505b509b50505050505050505050505060405180910390f35b610b0b600480360360408110156109d157600080fd5b81019080803590602001906401000000008111156109ee57600080fd5b820183602082011115610a0057600080fd5b80359060200191846001830284011164010000000083111715610a2257600080fd5b91908080601f016020809104026020016040519081016040528093929190818152602001838380828437600081840152601f19601f82011690508083019250505050505050919291929080359060200190640100000000811115610a8557600080fd5b820183602082011115610a9757600080fd5b80359060200191846001830284011164010000000083111715610ab957600080fd5b91908080601f016020809104026020016040519081016040528093929190818152602001838380828437600081840152601f19601f820116905080830192505050505050509192919290505050611c66565b005b610b4f60048036036020811015610b2357600080fd5b81019080803573ffffffffffffffffffffffffffffffffffffffff169060200190929190505050611ea0565b005b610c0a60048036036020811015610b6757600080fd5b8101908080359060200190640100000000811115610b8457600080fd5b820183602082011115610b9657600080fd5b80359060200191846001830284011164010000000083111715610bb857600080fd5b91908080601f016020809104026020016040519081016040528093929190818152602001838380828437600081840152601f19601f820116905080830192505050505050509192919290505050611f58565b005b610eaa600480360360a0811015610c2257600080fd5b8101908080359060200190640100000000811115610c3f57600080fd5b820183602082011115610c5157600080fd5b80359060200191846001830284011164010000000083111715610c7357600080fd5b91908080601f016020809104026020016040519081016040528093929190818152602001838380828437600081840152601f19601f820116905080830192505050505050509192919290803573ffffffffffffffffffffffffffffffffffffffff16906020019092919080359060200190640100000000811115610cf657600080fd5b820183602082011115610d0857600080fd5b80359060200191846001830284011164010000000083111715610d2a57600080fd5b91908080601f016020809104026020016040519081016040528093929190818152602001838380828437600081840152601f19601f82011690508083019250505050505050919291929080359060200190640100000000811115610d8d57600080fd5b820183602082011115610d9f57600080fd5b80359060200191846001830284011164010000000083111715610dc157600080fd5b91908080601f016020809104026020016040519081016040528093929190818152602001838380828437600081840152601f19601f82011690508083019250505050505050919291929080359060200190640100000000811115610e2457600080fd5b820183602082011115610e3657600080fd5b80359060200191846001830284011164010000000083111715610e5857600080fd5b91908080601f016020809104026020016040519081016040528093929190818152602001838380828437600081840152601f19601f8201169050808301925050505050505091929192905050506120b3565b005b61109360048036036060811015610ec257600080fd5b8101908080359060200190640100000000811115610edf57600080fd5b820183602082011115610ef157600080fd5b80359060200191846001830284011164010000000083111715610f1357600080fd5b91908080601f016020809104026020016040519081016040528093929190818152602001838380828437600081840152601f19601f82011690508083019250505050505050919291929080359060200190640100000000811115610f7657600080fd5b820183602082011115610f8857600080fd5b80359060200191846001830284011164010000000083111715610faa57600080fd5b91908080601f016020809104026020016040519081016040528093929190818152602001838380828437600081840152601f19601f8201169050808301925050505050505091929192908035906020019064010000000081111561100d57600080fd5b82018360208201111561101f57600080fd5b8035906020019184600183028401116401000000008311171561104157600080fd5b91908080601f016020809104026020016040519081016040528093929190818152602001838380828437600081840152601f19601f82011690508083019250505050505050919291929050505061233f565b005b6111ef600480360360608110156110ab57600080fd5b81019080803590602001906401000000008111156110c857600080fd5b8201836020820111156110da57600080fd5b803590602001918460018302840111640100000000831117156110fc57600080fd5b91908080601f016020809104026020016040519081016040528093929190818152602001838380828437600081840152601f19601f820116905080830192505050505050509192919290803590602001909291908035906020019064010000000081111561116957600080fd5b82018360208201111561117b57600080fd5b8035906020019184600183028401116401000000008311171561119d57600080fd5b91908080601f016020809104026020016040519081016040528093929190818152602001838380828437600081840152601f19601f8201169050808301925050505050505091929192905050506123e3565b005b61121d6004803603602081101561120757600080fd5b81019080803590602001909291905050506126c5565b60405180806020018673ffffffffffffffffffffffffffffffffffffffff1673ffffffffffffffffffffffffffffffffffffffff1681526020018581526020018415151515815260200183151515158152602001828103825287818151815260200191508051906020019080838360005b838110156112a957808201518184015260208101905061128e565b50505050905090810190601f1680156112d65780820380516001836020036101000a031916815260200191505b50965050505050505060405180910390f35b6000600880549050905090565b600160009054906101000a900473ffffffffffffffffffffffffffffffffffffffff1673ffffffffffffffffffffffffffffffffffffffff163373ffffffffffffffffffffffffffffffffffffffff161461134f57600080fd5b6009816040518082805190602001908083835b602083106113855780518252602082019150602081019050602083039250611362565b6001836020036101000a038019825116818451168082178552505050505050905001915050908152602001604051809103902060030160019054906101000a900460ff16156009826040518082805190602001908083835b6020831061140057805182526020820191506020810190506020830392506113dd565b6001836020036101000a038019825116818451168082178552505050505050905001915050908152602001604051809103902060030160016101000a81548160ff02191690831515021790555050565b606060006060600080606060006115156008898154811061146d57fe5b906000526020600020018054600181600116156101000203166002900480601f01602080910402602001604051908101604052809291908181526020018280546001816001161561010002031660029004801561150b5780601f106114e05761010080835404028352916020019161150b565b820191906000526020600020905b8154815290600101906020018083116114ee57829003601f168201915b5050505050612798565b9650965096509650965096509650919395979092949650565b6000600a80549050905090565b600073ffffffffffffffffffffffffffffffffffffffff16600b60003373ffffffffffffffffffffffffffffffffffffffff1673ffffffffffffffffffffffffffffffffffffffff16815260200190815260200160002060010160009054906101000a900473ffffffffffffffffffffffffffffffffffffffff1673ffffffffffffffffffffffffffffffffffffffff1614156115d757600080fd5b6001600b60003373ffffffffffffffffffffffffffffffffffffffff1673ffffffffffffffffffffffffffffffffffffffff16815260200190815260200160002060040160006101000a81548160ff021916908315150217905550565b600160009054906101000a900473ffffffffffffffffffffffffffffffffffffffff1673ffffffffffffffffffffffffffffffffffffffff163373ffffffffffffffffffffffffffffffffffffffff161461168e57600080fd5b611696613476565b83816000018190525082816020019073ffffffffffffffffffffffffffffffffffffffff16908173ffffffffffffffffffffffffffffffffffffffff16815250508181604001818152505060008160600190151590811515815250506001816080019015159081151581525050806009856040518082805190602001908083835b6020831061173a5780518252602082019150602081019050602083039250611717565b6001836020036101000a038019825116818451168082178552505050505050905001915050908152602001604051809103902060008201518160000190805190602001906117899291906134bf565b5060208201518160010160006101000a81548173ffffffffffffffffffffffffffffffffffffffff021916908373ffffffffffffffffffffffffffffffffffffffff1602179055506040820151816002015560608201518160030160006101000a81548160ff02191690831515021790555060808201518160030160016101000a81548160ff021916908315150217905550905050600a84908060018154018082558091505090600182039060005260206000200160009091929091909150908051906020019061185b92919061353f565b505050505050565b6004818154811061187057fe5b906000526020600020016000915090505481565b6000600c80549050905090565b60006060806060600080600160009054906101000a900473ffffffffffffffffffffffffffffffffffffffff166006600260036000600554848054600181600116156101000203166002900480601f01602080910402602001604051908101604052809291908181526020018280546001816001161561010002031660029004801561195e5780601f106119335761010080835404028352916020019161195e565b820191906000526020600020905b81548152906001019060200180831161194157829003601f168201915b50505050509450838054600181600116156101000203166002900480601f0160208091040260200160405190810160405280929190818152602001828054600181600116156101000203166002900480156119fa5780601f106119cf576101008083540402835291602001916119fa565b820191906000526020600020905b8154815290600101906020018083116119dd57829003601f168201915b50505050509350828054600181600116156101000203166002900480601f016020809104026020016040519081016040528092919081815260200182805460018160011615610100020316600290048015611a965780601f10611a6b57610100808354040283529160200191611a96565b820191906000526020600020905b815481529060010190602001808311611a7957829003601f168201915b50505050509250819150955095509550955095509550909192939495565b6009816040518082805190602001908083835b60208310611aea5780518252602082019150602081019050602083039250611ac7565b6001836020036101000a038019825116818451168082178552505050505050905001915050908152602001604051809103902060010160009054906101000a900473ffffffffffffffffffffffffffffffffffffffff1673ffffffffffffffffffffffffffffffffffffffff163373ffffffffffffffffffffffffffffffffffffffff1614611b7857600080fd5b60016009826040518082805190602001908083835b60208310611bb05780518252602082019150602081019050602083039250611b8d565b6001836020036101000a038019825116818451168082178552505050505050905001915050908152602001604051809103902060030160006101000a81548160ff02191690831515021790555050565b60606000606080600060606000611c4d600c8981548110611c1d57fe5b9060005260206000200160009054906101000a900473ffffffffffffffffffffffffffffffffffffffff16612cc4565b9650965096509650965096509650919395979092949650565b600160009054906101000a900473ffffffffffffffffffffffffffffffffffffffff1673ffffffffffffffffffffffffffffffffffffffff163373ffffffffffffffffffffffffffffffffffffffff1614611cc057600080fd5b611cc86135bf565b8281600001819052508181604001819052506000816020018181525050600081606001901515908115158152505060018160c0019015159081151581525050806007846040518082805190602001908083835b60208310611d3e5780518252602082019150602081019050602083039250611d1b565b6001836020036101000a03801982511681845116808217855250505050505090500191505090815260200160405180910390206000820151816000019080519060200190611d8d9291906134bf565b50602082015181600101556040820151816002019080519060200190611db49291906134bf565b5060608201518160030160006101000a81548160ff02191690831515021790555060808201518160030160016101000a81548173ffffffffffffffffffffffffffffffffffffffff021916908373ffffffffffffffffffffffffffffffffffffffff16021790555060a0820151816004019080519060200190611e389291906134bf565b5060c08201518160050160006101000a81548160ff0219169083151502179055509050506008839080600181540180825580915050906001820390600052602060002001600090919290919091509080519060200190611e9992919061353f565b5050505050565b600160009054906101000a900473ffffffffffffffffffffffffffffffffffffffff1673ffffffffffffffffffffffffffffffffffffffff163373ffffffffffffffffffffffffffffffffffffffff1614611efa57600080fd5b6000600b60008373ffffffffffffffffffffffffffffffffffffffff1673ffffffffffffffffffffffffffffffffffffffff16815260200190815260200160002060060160006101000a81548160ff02191690831515021790555050565b600160009054906101000a900473ffffffffffffffffffffffffffffffffffffffff1673ffffffffffffffffffffffffffffffffffffffff163373ffffffffffffffffffffffffffffffffffffffff1614611fb257600080fd5b6007816040518082805190602001908083835b60208310611fe85780518252602082019150602081019050602083039250611fc5565b6001836020036101000a038019825116818451168082178552505050505050905001915050908152602001604051809103902060050160009054906101000a900460ff16156007826040518082805190602001908083835b602083106120635780518252602082019150602081019050602083039250612040565b6001836020036101000a038019825116818451168082178552505050505050905001915050908152602001604051809103902060050160006101000a81548160ff02191690831515021790555050565b600160009054906101000a900473ffffffffffffffffffffffffffffffffffffffff1673ffffffffffffffffffffffffffffffffffffffff163373ffffffffffffffffffffffffffffffffffffffff161461210d57600080fd5b612115613616565b85816000018190525084816020019073ffffffffffffffffffffffffffffffffffffffff16908173ffffffffffffffffffffffffffffffffffffffff1681525050838160400181905250828160600181905250600081608001901515908115158152505060018160c0019015159081151581525050818160a0018190525080600b60008773ffffffffffffffffffffffffffffffffffffffff1673ffffffffffffffffffffffffffffffffffffffff16815260200190815260200160002060008201518160000190805190602001906121ef9291906134bf565b5060208201518160010160006101000a81548173ffffffffffffffffffffffffffffffffffffffff021916908373ffffffffffffffffffffffffffffffffffffffff16021790555060408201518160020190805190602001906122539291906134bf565b5060608201518160030190805190602001906122709291906134bf565b5060808201518160040160006101000a81548160ff02191690831515021790555060a08201518160050190805190602001906122ad9291906134bf565b5060c08201518160060160006101000a81548160ff021916908315150217905550905050600c8590806001815401808255809150509060018203906000526020600020016000909192909190916101000a81548173ffffffffffffffffffffffffffffffffffffffff021916908373ffffffffffffffffffffffffffffffffffffffff16021790555050505050505050565b600160009054906101000a900473ffffffffffffffffffffffffffffffffffffffff1673ffffffffffffffffffffffffffffffffffffffff163373ffffffffffffffffffffffffffffffffffffffff161461239957600080fd5b82600690805190602001906123af92919061353f565b5081600290805190602001906123c692919061353f565b5080600390805190602001906123dd92919061353f565b50505050565b6007836040518082805190602001908083835b6020831061241957805182526020820191506020810190506020830392506123f6565b6001836020036101000a038019825116818451168082178552505050505050905001915050908152602001604051809103902060050160009054906101000a900460ff1661246657600080fd5b816007846040518082805190602001908083835b6020831061249d578051825260208201915060208101905060208303925061247a565b6001836020036101000a038019825116818451168082178552505050505050905001915050908152602001604051809103902060010181905550600482908060018154018082558091505090600182039060005260206000200160009091929091909150555060016005540160058190555060016007846040518082805190602001908083835b602083106125475780518252602082019150602081019050602083039250612524565b6001836020036101000a038019825116818451168082178552505050505050905001915050908152602001604051809103902060030160006101000a81548160ff021916908315150217905550336007846040518082805190602001908083835b602083106125cb57805182526020820191506020810190506020830392506125a8565b6001836020036101000a038019825116818451168082178552505050505050905001915050908152602001604051809103902060030160016101000a81548173ffffffffffffffffffffffffffffffffffffffff021916908373ffffffffffffffffffffffffffffffffffffffff160217905550806007846040518082805190602001908083835b602083106126765780518252602082019150602081019050602083039250612653565b6001836020036101000a038019825116818451168082178552505050505050905001915050908152602001604051809103902060040190805190602001906126bf92919061353f565b50505050565b6060600080600080612785600a87815481106126dd57fe5b906000526020600020018054600181600116156101000203166002900480601f01602080910402602001604051908101604052809291908181526020018280546001816001161561010002031660029004801561277b5780601f106127505761010080835404028352916020019161277b565b820191906000526020600020905b81548152906001019060200180831161275e57829003601f168201915b5050505050613165565b9450945094509450945091939590929450565b606060006060600080606060006007886040518082805190602001908083835b602083106127db57805182526020820191506020810190506020830392506127b8565b6001836020036101000a03801982511681845116808217855250505050505090500191505090815260200160405180910390206000016007896040518082805190602001908083835b602083106128475780518252602082019150602081019050602083039250612824565b6001836020036101000a03801982511681845116808217855250505050505090500191505090815260200160405180910390206001015460078a6040518082805190602001908083835b602083106128b45780518252602082019150602081019050602083039250612891565b6001836020036101000a038019825116818451168082178552505050505050905001915050908152602001604051809103902060020160078b6040518082805190602001908083835b6020831061292057805182526020820191506020810190506020830392506128fd565b6001836020036101000a038019825116818451168082178552505050505050905001915050908152602001604051809103902060030160009054906101000a900460ff1660078c6040518082805190602001908083835b6020831061299a5780518252602082019150602081019050602083039250612977565b6001836020036101000a038019825116818451168082178552505050505050905001915050908152602001604051809103902060030160019054906101000a900473ffffffffffffffffffffffffffffffffffffffff1660078d6040518082805190602001908083835b60208310612a275780518252602082019150602081019050602083039250612a04565b6001836020036101000a038019825116818451168082178552505050505050905001915050908152602001604051809103902060040160078e6040518082805190602001908083835b60208310612a935780518252602082019150602081019050602083039250612a70565b6001836020036101000a038019825116818451168082178552505050505050905001915050908152602001604051809103902060050160009054906101000a900460ff16868054600181600116156101000203166002900480601f016020809104026020016040519081016040528092919081815260200182805460018160011615610100020316600290048015612b6c5780601f10612b4157610100808354040283529160200191612b6c565b820191906000526020600020905b815481529060010190602001808311612b4f57829003601f168201915b50505050509650848054600181600116156101000203166002900480601f016020809104026020016040519081016040528092919081815260200182805460018160011615610100020316600290048015612c085780601f10612bdd57610100808354040283529160200191612c08565b820191906000526020600020905b815481529060010190602001808311612beb57829003601f168201915b50505050509450818054600181600116156101000203166002900480601f016020809104026020016040519081016040528092919081815260200182805460018160011615610100020316600290048015612ca45780601f10612c7957610100808354040283529160200191612ca4565b820191906000526020600020905b815481529060010190602001808311612c8757829003601f168201915b505050505091509650965096509650965096509650919395979092949650565b60606000606080600060606000600b60008973ffffffffffffffffffffffffffffffffffffffff1673ffffffffffffffffffffffffffffffffffffffff168152602001908152602001600020600001600b60008a73ffffffffffffffffffffffffffffffffffffffff1673ffffffffffffffffffffffffffffffffffffffff16815260200190815260200160002060010160009054906101000a900473ffffffffffffffffffffffffffffffffffffffff16600b60008b73ffffffffffffffffffffffffffffffffffffffff1673ffffffffffffffffffffffffffffffffffffffff168152602001908152602001600020600201600b60008c73ffffffffffffffffffffffffffffffffffffffff1673ffffffffffffffffffffffffffffffffffffffff168152602001908152602001600020600301600b60008d73ffffffffffffffffffffffffffffffffffffffff1673ffffffffffffffffffffffffffffffffffffffff16815260200190815260200160002060040160009054906101000a900460ff16600b60008e73ffffffffffffffffffffffffffffffffffffffff1673ffffffffffffffffffffffffffffffffffffffff168152602001908152602001600020600501600b60008f73ffffffffffffffffffffffffffffffffffffffff1673ffffffffffffffffffffffffffffffffffffffff16815260200190815260200160002060060160009054906101000a900460ff16868054600181600116156101000203166002900480601f016020809104026020016040519081016040528092919081815260200182805460018160011615610100020316600290048015612f715780601f10612f4657610100808354040283529160200191612f71565b820191906000526020600020905b815481529060010190602001808311612f5457829003601f168201915b50505050509650848054600181600116156101000203166002900480601f01602080910402602001604051908101604052809291908181526020018280546001816001161561010002031660029004801561300d5780601f10612fe25761010080835404028352916020019161300d565b820191906000526020600020905b815481529060010190602001808311612ff057829003601f168201915b50505050509450838054600181600116156101000203166002900480601f0160208091040260200160405190810160405280929190818152602001828054600181600116156101000203166002900480156130a95780601f1061307e576101008083540402835291602001916130a9565b820191906000526020600020905b81548152906001019060200180831161308c57829003601f168201915b50505050509350818054600181600116156101000203166002900480601f0160208091040260200160405190810160405280929190818152602001828054600181600116156101000203166002900480156131455780601f1061311a57610100808354040283529160200191613145565b820191906000526020600020905b81548152906001019060200180831161312857829003601f168201915b505050505091509650965096509650965096509650919395979092949650565b60606000806000806009866040518082805190602001908083835b602083106131a35780518252602082019150602081019050602083039250613180565b6001836020036101000a03801982511681845116808217855250505050505090500191505090815260200160405180910390206000016009876040518082805190602001908083835b6020831061320f57805182526020820191506020810190506020830392506131ec565b6001836020036101000a038019825116818451168082178552505050505050905001915050908152602001604051809103902060010160009054906101000a900473ffffffffffffffffffffffffffffffffffffffff166009886040518082805190602001908083835b6020831061329c5780518252602082019150602081019050602083039250613279565b6001836020036101000a0380198251168184511680821785525050505050509050019150509081526020016040518091039020600201546009896040518082805190602001908083835b6020831061330957805182526020820191506020810190506020830392506132e6565b6001836020036101000a038019825116818451168082178552505050505050905001915050908152602001604051809103902060030160009054906101000a900460ff1660098a6040518082805190602001908083835b602083106133835780518252602082019150602081019050602083039250613360565b6001836020036101000a038019825116818451168082178552505050505050905001915050908152602001604051809103902060030160019054906101000a900460ff16848054600181600116156101000203166002900480601f01602080910402602001604051908101604052809291908181526020018280546001816001161561010002031660029004801561345c5780601f106134315761010080835404028352916020019161345c565b820191906000526020600020905b81548152906001019060200180831161343f57829003601f168201915b505050505094509450945094509450945091939590929450565b6040518060a0016040528060608152602001600073ffffffffffffffffffffffffffffffffffffffff168152602001600081526020016000151581526020016000151581525090565b828054600181600116156101000203166002900490600052602060002090601f016020900481019282601f1061350057805160ff191683800117855561352e565b8280016001018555821561352e579182015b8281111561352d578251825591602001919060010190613512565b5b50905061353b919061366d565b5090565b828054600181600116156101000203166002900490600052602060002090601f016020900481019282601f1061358057805160ff19168380011785556135ae565b828001600101855582156135ae579182015b828111156135ad578251825591602001919060010190613592565b5b5090506135bb919061366d565b5090565b6040518060e00160405280606081526020016000815260200160608152602001600015158152602001600073ffffffffffffffffffffffffffffffffffffffff168152602001606081526020016000151581525090565b6040518060e0016040528060608152602001600073ffffffffffffffffffffffffffffffffffffffff1681526020016060815260200160608152602001600015158152602001606081526020016000151581525090565b61368f91905b8082111561368b576000816000905550600101613673565b5090565b9056fea265627a7a723158203852e549a4431cc9e89f235c69b73413f415749d7e1f4e31f35279c632292c5964736f6c63430005100032",
  "source": "pragma solidity >=0.5.0 <0.9.0;\r\n\r\ncontract Employee {\r\n    address admin;\r\n    address employee_address;\r\n    string description;\r\n    string location;\r\n    uint256[] public overallEndorsement;\r\n    uint256 endorsecount;\r\n    string name;\r\n\r\n    constructor(\r\n        address _admin,\r\n        address _employee_address,\r\n        string memory _name,\r\n        string memory _description,\r\n        string memory _location\r\n    ) public {\r\n        admin = _admin;\r\n        name = _name;\r\n        employee_address = _employee_address;\r\n        description = _description;\r\n        location = _location;\r\n        endorsecount = 0;\r\n    }\r\n\r\n    modifier OnlyEmployee() {\r\n        require(msg.sender == employee_address);\r\n        _;\r\n    }\r\n\r\n    function getEmployeeInfo()\r\n        public\r\n        view\r\n        returns (\r\n            address,\r\n            string memory,\r\n            string memory,\r\n            string memory,\r\n            uint256,\r\n            uint256\r\n        )\r\n    {\r\n        return (employee_address, name, description, location, 0, endorsecount);\r\n    }\r\n\r\n    function editInfo(\r\n        string memory _name,\r\n        string memory _descrip,\r\n        string memory _location\r\n    ) public OnlyEmployee {\r\n        name = _name;\r\n        description = _descrip;\r\n        location = _location;\r\n    }\r\n\r\n    /*********************************************************SKILLS SECTION**********************************************************/\r\n\r\n    struct skillInfo {\r\n        string name;\r\n        uint256 overall_percentage;\r\n        string experience;\r\n        bool endorsed;\r\n        address endorser_address;\r\n        string review;\r\n        bool visible;\r\n    }\r\n\r\n    mapping(string => skillInfo) skillmap;\r\n    string[] skills;\r\n\r\n    function addSkill(string memory _name, string memory _experience)\r\n        public\r\n        OnlyEmployee\r\n    {\r\n        skillInfo memory employeeSkillSet;\r\n        employeeSkillSet.name = _name;\r\n        employeeSkillSet.experience = _experience;\r\n        employeeSkillSet.overall_percentage = 0;\r\n        employeeSkillSet.endorsed = false;\r\n        employeeSkillSet.visible = true;\r\n        skillmap[_name] = employeeSkillSet;\r\n        skills.push(_name);\r\n    }\r\n\r\n    function endorseSkill(\r\n        string memory _name,\r\n        uint256 _overall_percentage,\r\n        string memory _review\r\n    ) public {\r\n        require(skillmap[_name].visible);\r\n        skillmap[_name].overall_percentage = _overall_percentage;\r\n        overallEndorsement.push(_overall_percentage);\r\n        endorsecount = endorsecount + 1;\r\n        skillmap[_name].endorsed = true;\r\n        skillmap[_name].endorser_address = msg.sender;\r\n        skillmap[_name].review = _review;\r\n    }\r\n\r\n    function getSkillByName(string memory _name)\r\n        private\r\n        view\r\n        returns (\r\n            string memory,\r\n            uint256,\r\n            string memory,\r\n            bool,\r\n            address,\r\n            string memory,\r\n            bool\r\n        )\r\n    {\r\n        return (\r\n            skillmap[_name].name,\r\n            skillmap[_name].overall_percentage,\r\n            skillmap[_name].experience,\r\n            skillmap[_name].endorsed,\r\n            skillmap[_name].endorser_address,\r\n            skillmap[_name].review,\r\n            skillmap[_name].visible\r\n        );\r\n    }\r\n\r\n    function getSkillCount() public view returns (uint256) {\r\n        return skills.length;\r\n    }\r\n\r\n    function getSkillByIndex(uint256 _index)\r\n        public\r\n        view\r\n        returns (\r\n            string memory,\r\n            uint256,\r\n            string memory,\r\n            bool,\r\n            address,\r\n            string memory,\r\n            bool\r\n        )\r\n    {\r\n        return getSkillByName(skills[_index]);\r\n    }\r\n\r\n    function deleteSkill(string memory _name) public OnlyEmployee {\r\n        skillmap[_name].visible = !skillmap[_name].visible;\r\n    }\r\n\r\n    /*********************************************************CERTIFICATION SECTION**********************************************************/\r\n\r\n    struct certificationInfo {\r\n        string name;\r\n        address organization;\r\n        uint256 score;\r\n        bool endorsed;\r\n        bool visible;\r\n    }\r\n\r\n    mapping(string => certificationInfo) certificationmap;\r\n    string[] certifications;\r\n\r\n    function addCertification(\r\n        string memory _name,\r\n        address _organization,\r\n        uint256 _score\r\n    ) public OnlyEmployee {\r\n        certificationInfo memory newcertificationInfo;\r\n        newcertificationInfo.name = _name;\r\n        newcertificationInfo.organization = _organization;\r\n        newcertificationInfo.score = _score;\r\n        newcertificationInfo.endorsed = false;\r\n        newcertificationInfo.visible = true;\r\n        certificationmap[_name] = newcertificationInfo;\r\n        certifications.push(_name);\r\n    }\r\n\r\n    function endorseCertification(string memory _name) public {\r\n        require(msg.sender == certificationmap[_name].organization);\r\n        certificationmap[_name].endorsed = true;\r\n    }\r\n\r\n    function getCertificationByName(string memory _name)\r\n        private\r\n        view\r\n        returns (\r\n            string memory,\r\n            address,\r\n            uint256,\r\n            bool,\r\n            bool\r\n        )\r\n    {\r\n        return (\r\n            certificationmap[_name].name,\r\n            certificationmap[_name].organization,\r\n            certificationmap[_name].score,\r\n            certificationmap[_name].endorsed,\r\n            certificationmap[_name].visible\r\n        );\r\n    }\r\n\r\n    function getCertificationCount() public view returns (uint256) {\r\n        return certifications.length;\r\n    }\r\n\r\n    function getCertificationByIndex(uint256 _index)\r\n        public\r\n        view\r\n        returns (\r\n            string memory,\r\n            address,\r\n            uint256,\r\n            bool,\r\n            bool\r\n        )\r\n    {\r\n        return getCertificationByName(certifications[_index]);\r\n    }\r\n\r\n    function deleteCertification(string memory _name) public OnlyEmployee {\r\n        certificationmap[_name].visible = !certificationmap[_name].visible;\r\n    }\r\n\r\n    /********************************************************************Work Experience Section********************************************************************/\r\n\r\n    struct workexpInfo {\r\n        string role;\r\n        address organization;\r\n        string startdate;\r\n        string enddate;\r\n        bool endorsed;\r\n        string description;\r\n        bool visible;\r\n    }\r\n\r\n    mapping(address => workexpInfo) workexpmap;\r\n    address[] workexps;\r\n\r\n    function addWorkExp(\r\n        string memory _role,\r\n        address _organization,\r\n        string memory _startdate,\r\n        string memory _enddate,\r\n        string memory _description\r\n    ) public OnlyEmployee {\r\n        workexpInfo memory newworkexp;\r\n        newworkexp.role = _role;\r\n        newworkexp.organization = _organization;\r\n        newworkexp.startdate = _startdate;\r\n        newworkexp.enddate = _enddate;\r\n        newworkexp.endorsed = false;\r\n        newworkexp.visible = true;\r\n        newworkexp.description = _description;\r\n        workexpmap[_organization] = newworkexp;\r\n        workexps.push(_organization);\r\n    }\r\n\r\n    function endorseWorkExp() public {\r\n        require(workexpmap[msg.sender].organization != address(0x0));\r\n        workexpmap[msg.sender].endorsed = true;\r\n    }\r\n\r\n    function getWorkExpByAddress(address _organization)\r\n        private\r\n        view\r\n        returns (\r\n            string memory,\r\n            address,\r\n            string memory,\r\n            string memory,\r\n            bool,\r\n            string memory,\r\n            bool\r\n        )\r\n    {\r\n        return (\r\n            workexpmap[_organization].role,\r\n            workexpmap[_organization].organization,\r\n            workexpmap[_organization].startdate,\r\n            workexpmap[_organization].enddate,\r\n            workexpmap[_organization].endorsed,\r\n            workexpmap[_organization].description,\r\n            workexpmap[_organization].visible\r\n        );\r\n    }\r\n\r\n    function getWorkExpCount() public view returns (uint256) {\r\n        return workexps.length;\r\n    }\r\n\r\n    function getWorkExpByIndex(uint256 _index)\r\n        public\r\n        view\r\n        returns (\r\n            string memory,\r\n            address,\r\n            string memory,\r\n            string memory,\r\n            bool,\r\n            string memory,\r\n            bool\r\n        )\r\n    {\r\n        return getWorkExpByAddress(workexps[_index]);\r\n    }\r\n\r\n    function deleteWorkExp(address org) public OnlyEmployee {\r\n        workexpmap[org].visible = false;\r\n    }\r\n}\r\n",
  "sourcePath": "C:\\Users\\ASUS\\Desktop\\BlockChain\\Final-Year-Project-Blockchain\\src\\contracts\\Employee.sol",
  "compiler": {
    "name": "solc",
    "version": "0.5.16+commit.9c3226ce.Emscripten.clang"
  },
  "schemaVersion": "3.4.9",
  "updatedAt": "2022-11-30T12:24:59.975Z",
  "devdoc": {
    "methods": {}
  },
  "userdoc": {
    "methods": {}
  }
}