{
  "contractName": "Employee",
  "abi": [
    {
      "inputs": [
        {
          "internalType": "address",
          "name": "_admin",
          "type": "address"
        },
        {
          "internalType": "address",
          "name": "_employee_address",
          "type": "address"
        },
        {
          "internalType": "string",
          "name": "_name",
          "type": "string"
        },
        {
          "internalType": "string",
          "name": "_description",
          "type": "string"
        },
        {
          "internalType": "string",
          "name": "_location",
          "type": "string"
        }
      ],
      "payable": false,
      "stateMutability": "nonpayable",
      "type": "constructor"
    },
    {
      "constant": true,
      "inputs": [
        {
          "internalType": "uint256",
          "name": "",
          "type": "uint256"
        }
      ],
      "name": "overallEndorsement",
      "outputs": [
        {
          "internalType": "uint256",
          "name": "",
          "type": "uint256"
        }
      ],
      "payable": false,
      "stateMutability": "view",
      "type": "function"
    },
    {
      "constant": true,
      "inputs": [],
      "name": "getEmployeeInfo",
      "outputs": [
        {
          "internalType": "address",
          "name": "",
          "type": "address"
        },
        {
          "internalType": "string",
          "name": "",
          "type": "string"
        },
        {
          "internalType": "string",
          "name": "",
          "type": "string"
        },
        {
          "internalType": "string",
          "name": "",
          "type": "string"
        },
        {
          "internalType": "uint256",
          "name": "",
          "type": "uint256"
        },
        {
          "internalType": "uint256",
          "name": "",
          "type": "uint256"
        }
      ],
      "payable": false,
      "stateMutability": "view",
      "type": "function"
    },
    {
      "constant": false,
      "inputs": [
        {
          "internalType": "string",
          "name": "_name",
          "type": "string"
        },
        {
          "internalType": "string",
          "name": "_descrip",
          "type": "string"
        },
        {
          "internalType": "string",
          "name": "_location",
          "type": "string"
        }
      ],
      "name": "editInfo",
      "outputs": [],
      "payable": false,
      "stateMutability": "nonpayable",
      "type": "function"
    },
    {
      "constant": false,
      "inputs": [
        {
          "internalType": "string",
          "name": "_name",
          "type": "string"
        },
        {
          "internalType": "string",
          "name": "_experience",
          "type": "string"
        }
      ],
      "name": "addSkill",
      "outputs": [],
      "payable": false,
      "stateMutability": "nonpayable",
      "type": "function"
    },
    {
      "constant": false,
      "inputs": [
        {
          "internalType": "string",
          "name": "_name",
          "type": "string"
        },
        {
          "internalType": "uint256",
          "name": "_overall_percentage",
          "type": "uint256"
        },
        {
          "internalType": "string",
          "name": "_review",
          "type": "string"
        }
      ],
      "name": "endorseSkill",
      "outputs": [],
      "payable": false,
      "stateMutability": "nonpayable",
      "type": "function"
    },
    {
      "constant": true,
      "inputs": [],
      "name": "getSkillCount",
      "outputs": [
        {
          "internalType": "uint256",
          "name": "",
          "type": "uint256"
        }
      ],
      "payable": false,
      "stateMutability": "view",
      "type": "function"
    },
    {
      "constant": true,
      "inputs": [
        {
          "internalType": "uint256",
          "name": "_index",
          "type": "uint256"
        }
      ],
      "name": "getSkillByIndex",
      "outputs": [
        {
          "internalType": "string",
          "name": "",
          "type": "string"
        },
        {
          "internalType": "uint256",
          "name": "",
          "type": "uint256"
        },
        {
          "internalType": "string",
          "name": "",
          "type": "string"
        },
        {
          "internalType": "bool",
          "name": "",
          "type": "bool"
        },
        {
          "internalType": "address",
          "name": "",
          "type": "address"
        },
        {
          "internalType": "string",
          "name": "",
          "type": "string"
        },
        {
          "internalType": "bool",
          "name": "",
          "type": "bool"
        }
      ],
      "payable": false,
      "stateMutability": "view",
      "type": "function"
    },
    {
      "constant": false,
      "inputs": [
        {
          "internalType": "string",
          "name": "_name",
          "type": "string"
        }
      ],
      "name": "deleteSkill",
      "outputs": [],
      "payable": false,
      "stateMutability": "nonpayable",
      "type": "function"
    },
    {
      "constant": false,
      "inputs": [
        {
          "internalType": "string",
          "name": "_name",
          "type": "string"
        },
        {
          "internalType": "address",
          "name": "_organization",
          "type": "address"
        },
        {
          "internalType": "uint256",
          "name": "_score",
          "type": "uint256"
        },
        {
          "internalType": "bool",
          "name": "_isScored",
          "type": "bool"
        },
        {
          "internalType": "string",
          "name": "_certificate_url",
          "type": "string"
        },
        {
          "internalType": "string",
          "name": "_certificate_type",
          "type": "string"
        }
      ],
      "name": "addCertification",
      "outputs": [],
      "payable": false,
      "stateMutability": "nonpayable",
      "type": "function"
    },
    {
      "constant": false,
      "inputs": [
        {
          "internalType": "string",
          "name": "_name",
          "type": "string"
        }
      ],
      "name": "endorseCertification",
      "outputs": [],
      "payable": false,
      "stateMutability": "nonpayable",
      "type": "function"
    },
    {
      "constant": true,
      "inputs": [],
      "name": "getCertificationCount",
      "outputs": [
        {
          "internalType": "uint256",
          "name": "",
          "type": "uint256"
        }
      ],
      "payable": false,
      "stateMutability": "view",
      "type": "function"
    },
    {
      "constant": true,
      "inputs": [
        {
          "internalType": "uint256",
          "name": "_index",
          "type": "uint256"
        }
      ],
      "name": "getCertificationByIndex",
      "outputs": [
        {
          "internalType": "string",
          "name": "",
          "type": "string"
        },
        {
          "internalType": "address",
          "name": "",
          "type": "address"
        },
        {
          "internalType": "uint256",
          "name": "",
          "type": "uint256"
        },
        {
          "internalType": "bool",
          "name": "",
          "type": "bool"
        },
        {
          "internalType": "bool",
          "name": "",
          "type": "bool"
        },
        {
          "internalType": "bool",
          "name": "",
          "type": "bool"
        },
        {
          "internalType": "string",
          "name": "",
          "type": "string"
        },
        {
          "internalType": "string",
          "name": "",
          "type": "string"
        }
      ],
      "payable": false,
      "stateMutability": "view",
      "type": "function"
    },
    {
      "constant": false,
      "inputs": [
        {
          "internalType": "string",
          "name": "_name",
          "type": "string"
        }
      ],
      "name": "deleteCertification",
      "outputs": [],
      "payable": false,
      "stateMutability": "nonpayable",
      "type": "function"
    },
    {
      "constant": false,
      "inputs": [
        {
          "internalType": "string",
          "name": "_role",
          "type": "string"
        },
        {
          "internalType": "address",
          "name": "_organization",
          "type": "address"
        },
        {
          "internalType": "string",
          "name": "_startdate",
          "type": "string"
        },
        {
          "internalType": "string",
          "name": "_enddate",
          "type": "string"
        },
        {
          "internalType": "string",
          "name": "_description",
          "type": "string"
        }
      ],
      "name": "addWorkExp",
      "outputs": [],
      "payable": false,
      "stateMutability": "nonpayable",
      "type": "function"
    },
    {
      "constant": false,
      "inputs": [],
      "name": "endorseWorkExp",
      "outputs": [],
      "payable": false,
      "stateMutability": "nonpayable",
      "type": "function"
    },
    {
      "constant": true,
      "inputs": [],
      "name": "getWorkExpCount",
      "outputs": [
        {
          "internalType": "uint256",
          "name": "",
          "type": "uint256"
        }
      ],
      "payable": false,
      "stateMutability": "view",
      "type": "function"
    },
    {
      "constant": true,
      "inputs": [
        {
          "internalType": "uint256",
          "name": "_index",
          "type": "uint256"
        }
      ],
      "name": "getWorkExpByIndex",
      "outputs": [
        {
          "internalType": "string",
          "name": "",
          "type": "string"
        },
        {
          "internalType": "address",
          "name": "",
          "type": "address"
        },
        {
          "internalType": "string",
          "name": "",
          "type": "string"
        },
        {
          "internalType": "string",
          "name": "",
          "type": "string"
        },
        {
          "internalType": "bool",
          "name": "",
          "type": "bool"
        },
        {
          "internalType": "string",
          "name": "",
          "type": "string"
        },
        {
          "internalType": "bool",
          "name": "",
          "type": "bool"
        }
      ],
      "payable": false,
      "stateMutability": "view",
      "type": "function"
    },
    {
      "constant": false,
      "inputs": [
        {
          "internalType": "address",
          "name": "org",
          "type": "address"
        }
      ],
      "name": "deleteWorkExp",
      "outputs": [],
      "payable": false,
      "stateMutability": "nonpayable",
      "type": "function"
    },
    {
      "constant": false,
      "inputs": [
        {
          "internalType": "string",
          "name": "_newUsername",
          "type": "string"
        }
      ],
      "name": "setCodeforcesUsername",
      "outputs": [],
      "payable": false,
      "stateMutability": "nonpayable",
      "type": "function"
    },
    {
      "constant": true,
      "inputs": [],
      "name": "getCodeforcesUsername",
      "outputs": [
        {
          "internalType": "string",
          "name": "",
          "type": "string"
        }
      ],
      "payable": false,
      "stateMutability": "view",
      "type": "function"
    }
  ],
  "bytecode": "0x60806040523480156200001157600080fd5b50604051620040c3380380620040c3833981810160405260a08110156200003757600080fd5b810190808051906020019092919080519060200190929190805160405193929190846401000000008211156200006c57600080fd5b838201915060208201858111156200008357600080fd5b8251866001820283011164010000000082111715620000a157600080fd5b8083526020830192505050908051906020019080838360005b83811015620000d7578082015181840152602081019050620000ba565b50505050905090810190601f168015620001055780820380516001836020036101000a031916815260200191505b50604052602001805160405193929190846401000000008211156200012957600080fd5b838201915060208201858111156200014057600080fd5b82518660018202830111640100000000821117156200015e57600080fd5b8083526020830192505050908051906020019080838360005b838110156200019457808201518184015260208101905062000177565b50505050905090810190601f168015620001c25780820380516001836020036101000a031916815260200191505b5060405260200180516040519392919084640100000000821115620001e657600080fd5b83820191506020820185811115620001fd57600080fd5b82518660018202830111640100000000821117156200021b57600080fd5b8083526020830192505050908051906020019080838360005b838110156200025157808201518184015260208101905062000234565b50505050905090810190601f1680156200027f5780820380516001836020036101000a031916815260200191505b50604052505050846000806101000a81548173ffffffffffffffffffffffffffffffffffffffff021916908373ffffffffffffffffffffffffffffffffffffffff1602179055508260069080519060200190620002de929190620003b3565b5083600160006101000a81548173ffffffffffffffffffffffffffffffffffffffff021916908373ffffffffffffffffffffffffffffffffffffffff160217905550816002908051906020019062000338929190620003b3565b50806003908051906020019062000351929190620003b3565b5060006005819055506040518060400160405280600b81526020017f616b61736867686164676500000000000000000000000000000000000000000081525060079080519060200190620003a7929190620003b3565b50505050505062000462565b828054600181600116156101000203166002900490600052602060002090601f016020900481019282601f10620003f657805160ff191683800117855562000427565b8280016001018555821562000427579182015b828111156200042657825182559160200191906001019062000409565b5b5090506200043691906200043a565b5090565b6200045f91905b808211156200045b57600081600090555060010162000441565b5090565b90565b613c5180620004726000396000f3fe608060405234801561001057600080fd5b506004361061012c5760003560e01c8063cf6431c6116100ad578063eda3467c11610071578063eda3467c14610ddf578063f1d9efb214610e9a578063fc017f251461113a578063fdb1036114611323578063fee7989e1461147f5761012c565b8063cf6431c61461089f578063d305aa221461095a578063d57e0ad614610a15578063d862ae8714610c49578063e260175114610d9b5761012c565b806344afd134116100f457806344afd1341461067b57806344f034ae146106995780637c067d8d146106a357806394fb3da7146106e5578063a3e3bf7d146107035761012c565b806305f53b2914610131578063164937591461014f5780632186879c1461036e5780632a030e9b14610429578063444fc662146104ac575b600080fd5b610139611659565b6040518082815260200191505060405180910390f35b61036c600480360360c081101561016557600080fd5b810190808035906020019064010000000081111561018257600080fd5b82018360208201111561019457600080fd5b803590602001918460018302840111640100000000831117156101b657600080fd5b91908080601f016020809104026020016040519081016040528093929190818152602001838380828437600081840152601f19601f820116905080830192505050505050509192919290803573ffffffffffffffffffffffffffffffffffffffff169060200190929190803590602001909291908035151590602001909291908035906020019064010000000081111561024f57600080fd5b82018360208201111561026157600080fd5b8035906020019184600183028401116401000000008311171561028357600080fd5b91908080601f016020809104026020016040519081016040528093929190818152602001838380828437600081840152601f19601f820116905080830192505050505050509192919290803590602001906401000000008111156102e657600080fd5b8201836020820111156102f857600080fd5b8035906020019184600183028401116401000000008311171561031a57600080fd5b91908080601f016020809104026020016040519081016040528093929190818152602001838380828437600081840152601f19601f820116905080830192505050505050509192919290505050611666565b005b6104276004803603602081101561038457600080fd5b81019080803590602001906401000000008111156103a157600080fd5b8201836020820111156103b357600080fd5b803590602001918460018302840111640100000000831117156103d557600080fd5b91908080601f016020809104026020016040519081016040528093929190818152602001838380828437600081840152601f19601f820116905080830192505050505050509192919290505050611914565b005b610431611a6f565b6040518080602001828103825283818151815260200191508051906020019080838360005b83811015610471578082015181840152602081019050610456565b50505050905090810190601f16801561049e5780820380516001836020036101000a031916815260200191505b509250505060405180910390f35b6104d8600480360360208110156104c257600080fd5b8101908080359060200190929190505050611b11565b604051808060200188815260200180602001871515151581526020018673ffffffffffffffffffffffffffffffffffffffff1673ffffffffffffffffffffffffffffffffffffffff168152602001806020018515151515815260200184810384528b818151815260200191508051906020019080838360005b8381101561056c578082015181840152602081019050610551565b50505050905090810190601f1680156105995780820380516001836020036101000a031916815260200191505b50848103835289818151815260200191508051906020019080838360005b838110156105d25780820151818401526020810190506105b7565b50505050905090810190601f1680156105ff5780820380516001836020036101000a031916815260200191505b50848103825286818151815260200191508051906020019080838360005b8381101561063857808201518184015260208101905061061d565b50505050905090810190601f1680156106655780820380516001836020036101000a031916815260200191505b509a505050505050505050505060405180910390f35b610683611bef565b6040518082815260200191505060405180910390f35b6106a1611bfc565b005b6106cf600480360360208110156106b957600080fd5b8101908080359060200190929190505050611cf5565b6040518082815260200191505060405180910390f35b6106ed611d16565b6040518082815260200191505060405180910390f35b61070b611d23565b604051808773ffffffffffffffffffffffffffffffffffffffff1673ffffffffffffffffffffffffffffffffffffffff168152602001806020018060200180602001868152602001858152602001848103845289818151815260200191508051906020019080838360005b83811015610791578082015181840152602081019050610776565b50505050905090810190601f1680156107be5780820380516001836020036101000a031916815260200191505b50848103835288818151815260200191508051906020019080838360005b838110156107f75780820151818401526020810190506107dc565b50505050905090810190601f1680156108245780820380516001836020036101000a031916815260200191505b50848103825287818151815260200191508051906020019080838360005b8381101561085d578082015181840152602081019050610842565b50505050905090810190601f16801561088a5780820380516001836020036101000a031916815260200191505b50995050505050505050505060405180910390f35b610958600480360360208110156108b557600080fd5b81019080803590602001906401000000008111156108d257600080fd5b8201836020820111156108e457600080fd5b8035906020019184600183028401116401000000008311171561090657600080fd5b91908080601f016020809104026020016040519081016040528093929190818152602001838380828437600081840152601f19601f820116905080830192505050505050509192919290505050611f46565b005b610a136004803603602081101561097057600080fd5b810190808035906020019064010000000081111561098d57600080fd5b82018360208201111561099f57600080fd5b803590602001918460018302840111640100000000831117156109c157600080fd5b91908080601f016020809104026020016040519081016040528093929190818152602001838380828437600081840152601f19601f820116905080830192505050505050509192919290505050612092565b005b610a4160048036036020811015610a2b57600080fd5b8101908080359060200190929190505050612106565b60405180806020018873ffffffffffffffffffffffffffffffffffffffff1673ffffffffffffffffffffffffffffffffffffffff168152602001806020018060200187151515158152602001806020018615151515815260200185810385528c818151815260200191508051906020019080838360005b83811015610ad3578082015181840152602081019050610ab8565b50505050905090810190601f168015610b005780820380516001836020036101000a031916815260200191505b5085810384528a818151815260200191508051906020019080838360005b83811015610b39578082015181840152602081019050610b1e565b50505050905090810190601f168015610b665780820380516001836020036101000a031916815260200191505b50858103835289818151815260200191508051906020019080838360005b83811015610b9f578082015181840152602081019050610b84565b50505050905090810190601f168015610bcc5780820380516001836020036101000a031916815260200191505b50858103825287818151815260200191508051906020019080838360005b83811015610c05578082015181840152602081019050610bea565b50505050905090810190601f168015610c325780820380516001836020036101000a031916815260200191505b509b50505050505050505050505060405180910390f35b610d9960048036036040811015610c5f57600080fd5b8101908080359060200190640100000000811115610c7c57600080fd5b820183602082011115610c8e57600080fd5b80359060200191846001830284011164010000000083111715610cb057600080fd5b91908080601f016020809104026020016040519081016040528093929190818152602001838380828437600081840152601f19601f82011690508083019250505050505050919291929080359060200190640100000000811115610d1357600080fd5b820183602082011115610d2557600080fd5b80359060200191846001830284011164010000000083111715610d4757600080fd5b91908080601f016020809104026020016040519081016040528093929190818152602001838380828437600081840152601f19601f82011690508083019250505050505050919291929050505061216c565b005b610ddd60048036036020811015610db157600080fd5b81019080803573ffffffffffffffffffffffffffffffffffffffff1690602001909291905050506123a6565b005b610e9860048036036020811015610df557600080fd5b8101908080359060200190640100000000811115610e1257600080fd5b820183602082011115610e2457600080fd5b80359060200191846001830284011164010000000083111715610e4657600080fd5b91908080601f016020809104026020016040519081016040528093929190818152602001838380828437600081840152601f19601f82011690508083019250505050505050919291929050505061245e565b005b611138600480360360a0811015610eb057600080fd5b8101908080359060200190640100000000811115610ecd57600080fd5b820183602082011115610edf57600080fd5b80359060200191846001830284011164010000000083111715610f0157600080fd5b91908080601f016020809104026020016040519081016040528093929190818152602001838380828437600081840152601f19601f820116905080830192505050505050509192919290803573ffffffffffffffffffffffffffffffffffffffff16906020019092919080359060200190640100000000811115610f8457600080fd5b820183602082011115610f9657600080fd5b80359060200191846001830284011164010000000083111715610fb857600080fd5b91908080601f016020809104026020016040519081016040528093929190818152602001838380828437600081840152601f19601f8201169050808301925050505050505091929192908035906020019064010000000081111561101b57600080fd5b82018360208201111561102d57600080fd5b8035906020019184600183028401116401000000008311171561104f57600080fd5b91908080601f016020809104026020016040519081016040528093929190818152602001838380828437600081840152601f19601f820116905080830192505050505050509192919290803590602001906401000000008111156110b257600080fd5b8201836020820111156110c457600080fd5b803590602001918460018302840111640100000000831117156110e657600080fd5b91908080601f016020809104026020016040519081016040528093929190818152602001838380828437600081840152601f19601f8201169050808301925050505050505091929192905050506125b9565b005b6113216004803603606081101561115057600080fd5b810190808035906020019064010000000081111561116d57600080fd5b82018360208201111561117f57600080fd5b803590602001918460018302840111640100000000831117156111a157600080fd5b91908080601f016020809104026020016040519081016040528093929190818152602001838380828437600081840152601f19601f8201169050808301925050505050505091929192908035906020019064010000000081111561120457600080fd5b82018360208201111561121657600080fd5b8035906020019184600183028401116401000000008311171561123857600080fd5b91908080601f016020809104026020016040519081016040528093929190818152602001838380828437600081840152601f19601f8201169050808301925050505050505091929192908035906020019064010000000081111561129b57600080fd5b8201836020820111156112ad57600080fd5b803590602001918460018302840111640100000000831117156112cf57600080fd5b91908080601f016020809104026020016040519081016040528093929190818152602001838380828437600081840152601f19601f820116905080830192505050505050509192919290505050612845565b005b61147d6004803603606081101561133957600080fd5b810190808035906020019064010000000081111561135657600080fd5b82018360208201111561136857600080fd5b8035906020019184600183028401116401000000008311171561138a57600080fd5b91908080601f016020809104026020016040519081016040528093929190818152602001838380828437600081840152601f19601f82011690508083019250505050505050919291929080359060200190929190803590602001906401000000008111156113f757600080fd5b82018360208201111561140957600080fd5b8035906020019184600183028401116401000000008311171561142b57600080fd5b91908080601f016020809104026020016040519081016040528093929190818152602001838380828437600081840152601f19601f8201169050808301925050505050505091929192905050506128e9565b005b6114ab6004803603602081101561149557600080fd5b8101908080359060200190929190505050612bcb565b60405180806020018973ffffffffffffffffffffffffffffffffffffffff1673ffffffffffffffffffffffffffffffffffffffff168152602001888152602001871515151581526020018615151515815260200185151515158152602001806020018060200184810384528c818151815260200191508051906020019080838360005b8381101561154957808201518184015260208101905061152e565b50505050905090810190601f1680156115765780820380516001836020036101000a031916815260200191505b50848103835286818151815260200191508051906020019080838360005b838110156115af578082015181840152602081019050611594565b50505050905090810190601f1680156115dc5780820380516001836020036101000a031916815260200191505b50848103825285818151815260200191508051906020019080838360005b838110156116155780820151818401526020810190506115fa565b50505050905090810190601f1680156116425780820380516001836020036101000a031916815260200191505b509b50505050505050505050505060405180910390f35b6000600980549050905090565b600160009054906101000a900473ffffffffffffffffffffffffffffffffffffffff1673ffffffffffffffffffffffffffffffffffffffff163373ffffffffffffffffffffffffffffffffffffffff16146116c057600080fd5b6116c86139e8565b86816000018190525085816020019073ffffffffffffffffffffffffffffffffffffffff16908173ffffffffffffffffffffffffffffffffffffffff16815250508481604001818152505060008160600190151590811515815250506001816080019015159081151581525050838160a0019015159081151581525050818160e00181905250828160c0018190525080600a886040518082805190602001908083835b6020831061178e578051825260208201915060208101905060208303925061176b565b6001836020036101000a038019825116818451168082178552505050505050905001915050908152602001604051809103902060008201518160000190805190602001906117dd929190613a49565b5060208201518160010160006101000a81548173ffffffffffffffffffffffffffffffffffffffff021916908373ffffffffffffffffffffffffffffffffffffffff1602179055506040820151816002015560608201518160030160006101000a81548160ff02191690831515021790555060808201518160030160016101000a81548160ff02191690831515021790555060a08201518160030160026101000a81548160ff02191690831515021790555060c08201518160040190805190602001906118ab929190613a49565b5060e08201518160050190805190602001906118c8929190613a49565b50905050600b879080600181540180825580915050906001820390600052602060002001600090919290919091509080519060200190611909929190613ac9565b505050505050505050565b600160009054906101000a900473ffffffffffffffffffffffffffffffffffffffff1673ffffffffffffffffffffffffffffffffffffffff163373ffffffffffffffffffffffffffffffffffffffff161461196e57600080fd5b600a816040518082805190602001908083835b602083106119a45780518252602082019150602081019050602083039250611981565b6001836020036101000a038019825116818451168082178552505050505050905001915050908152602001604051809103902060030160019054906101000a900460ff1615600a826040518082805190602001908083835b60208310611a1f57805182526020820191506020810190506020830392506119fc565b6001836020036101000a038019825116818451168082178552505050505050905001915050908152602001604051809103902060030160016101000a81548160ff02191690831515021790555050565b606060078054600181600116156101000203166002900480601f016020809104026020016040519081016040528092919081815260200182805460018160011615610100020316600290048015611b075780601f10611adc57610100808354040283529160200191611b07565b820191906000526020600020905b815481529060010190602001808311611aea57829003601f168201915b5050505050905090565b60606000606060008060606000611bd660098981548110611b2e57fe5b906000526020600020018054600181600116156101000203166002900480601f016020809104026020016040519081016040528092919081815260200182805460018160011615610100020316600290048015611bcc5780601f10611ba157610100808354040283529160200191611bcc565b820191906000526020600020905b815481529060010190602001808311611baf57829003601f168201915b5050505050612cab565b9650965096509650965096509650919395979092949650565b6000600b80549050905090565b600073ffffffffffffffffffffffffffffffffffffffff16600c60003373ffffffffffffffffffffffffffffffffffffffff1673ffffffffffffffffffffffffffffffffffffffff16815260200190815260200160002060010160009054906101000a900473ffffffffffffffffffffffffffffffffffffffff1673ffffffffffffffffffffffffffffffffffffffff161415611c9857600080fd5b6001600c60003373ffffffffffffffffffffffffffffffffffffffff1673ffffffffffffffffffffffffffffffffffffffff16815260200190815260200160002060040160006101000a81548160ff021916908315150217905550565b60048181548110611d0257fe5b906000526020600020016000915090505481565b6000600d80549050905090565b60006060806060600080600160009054906101000a900473ffffffffffffffffffffffffffffffffffffffff166006600260036000600554848054600181600116156101000203166002900480601f016020809104026020016040519081016040528092919081815260200182805460018160011615610100020316600290048015611df05780601f10611dc557610100808354040283529160200191611df0565b820191906000526020600020905b815481529060010190602001808311611dd357829003601f168201915b50505050509450838054600181600116156101000203166002900480601f016020809104026020016040519081016040528092919081815260200182805460018160011615610100020316600290048015611e8c5780601f10611e6157610100808354040283529160200191611e8c565b820191906000526020600020905b815481529060010190602001808311611e6f57829003601f168201915b50505050509350828054600181600116156101000203166002900480601f016020809104026020016040519081016040528092919081815260200182805460018160011615610100020316600290048015611f285780601f10611efd57610100808354040283529160200191611f28565b820191906000526020600020905b815481529060010190602001808311611f0b57829003601f168201915b50505050509250819150955095509550955095509550909192939495565b600a816040518082805190602001908083835b60208310611f7c5780518252602082019150602081019050602083039250611f59565b6001836020036101000a038019825116818451168082178552505050505050905001915050908152602001604051809103902060010160009054906101000a900473ffffffffffffffffffffffffffffffffffffffff1673ffffffffffffffffffffffffffffffffffffffff163373ffffffffffffffffffffffffffffffffffffffff161461200a57600080fd5b6001600a826040518082805190602001908083835b60208310612042578051825260208201915060208101905060208303925061201f565b6001836020036101000a038019825116818451168082178552505050505050905001915050908152602001604051809103902060030160006101000a81548160ff02191690831515021790555050565b600160009054906101000a900473ffffffffffffffffffffffffffffffffffffffff1673ffffffffffffffffffffffffffffffffffffffff163373ffffffffffffffffffffffffffffffffffffffff16146120ec57600080fd5b8060079080519060200190612102929190613ac9565b5050565b60606000606080600060606000612153600d898154811061212357fe5b9060005260206000200160009054906101000a900473ffffffffffffffffffffffffffffffffffffffff166131d7565b9650965096509650965096509650919395979092949650565b600160009054906101000a900473ffffffffffffffffffffffffffffffffffffffff1673ffffffffffffffffffffffffffffffffffffffff163373ffffffffffffffffffffffffffffffffffffffff16146121c657600080fd5b6121ce613b49565b8281600001819052508181604001819052506000816020018181525050600081606001901515908115158152505060018160c0019015159081151581525050806008846040518082805190602001908083835b602083106122445780518252602082019150602081019050602083039250612221565b6001836020036101000a03801982511681845116808217855250505050505090500191505090815260200160405180910390206000820151816000019080519060200190612293929190613a49565b506020820151816001015560408201518160020190805190602001906122ba929190613a49565b5060608201518160030160006101000a81548160ff02191690831515021790555060808201518160030160016101000a81548173ffffffffffffffffffffffffffffffffffffffff021916908373ffffffffffffffffffffffffffffffffffffffff16021790555060a082015181600401908051906020019061233e929190613a49565b5060c08201518160050160006101000a81548160ff021916908315150217905550905050600983908060018154018082558091505090600182039060005260206000200160009091929091909150908051906020019061239f929190613ac9565b5050505050565b600160009054906101000a900473ffffffffffffffffffffffffffffffffffffffff1673ffffffffffffffffffffffffffffffffffffffff163373ffffffffffffffffffffffffffffffffffffffff161461240057600080fd5b6000600c60008373ffffffffffffffffffffffffffffffffffffffff1673ffffffffffffffffffffffffffffffffffffffff16815260200190815260200160002060060160006101000a81548160ff02191690831515021790555050565b600160009054906101000a900473ffffffffffffffffffffffffffffffffffffffff1673ffffffffffffffffffffffffffffffffffffffff163373ffffffffffffffffffffffffffffffffffffffff16146124b857600080fd5b6008816040518082805190602001908083835b602083106124ee57805182526020820191506020810190506020830392506124cb565b6001836020036101000a038019825116818451168082178552505050505050905001915050908152602001604051809103902060050160009054906101000a900460ff16156008826040518082805190602001908083835b602083106125695780518252602082019150602081019050602083039250612546565b6001836020036101000a038019825116818451168082178552505050505050905001915050908152602001604051809103902060050160006101000a81548160ff02191690831515021790555050565b600160009054906101000a900473ffffffffffffffffffffffffffffffffffffffff1673ffffffffffffffffffffffffffffffffffffffff163373ffffffffffffffffffffffffffffffffffffffff161461261357600080fd5b61261b613ba0565b85816000018190525084816020019073ffffffffffffffffffffffffffffffffffffffff16908173ffffffffffffffffffffffffffffffffffffffff1681525050838160400181905250828160600181905250600081608001901515908115158152505060018160c0019015159081151581525050818160a0018190525080600c60008773ffffffffffffffffffffffffffffffffffffffff1673ffffffffffffffffffffffffffffffffffffffff16815260200190815260200160002060008201518160000190805190602001906126f5929190613a49565b5060208201518160010160006101000a81548173ffffffffffffffffffffffffffffffffffffffff021916908373ffffffffffffffffffffffffffffffffffffffff1602179055506040820151816002019080519060200190612759929190613a49565b506060820151816003019080519060200190612776929190613a49565b5060808201518160040160006101000a81548160ff02191690831515021790555060a08201518160050190805190602001906127b3929190613a49565b5060c08201518160060160006101000a81548160ff021916908315150217905550905050600d8590806001815401808255809150509060018203906000526020600020016000909192909190916101000a81548173ffffffffffffffffffffffffffffffffffffffff021916908373ffffffffffffffffffffffffffffffffffffffff16021790555050505050505050565b600160009054906101000a900473ffffffffffffffffffffffffffffffffffffffff1673ffffffffffffffffffffffffffffffffffffffff163373ffffffffffffffffffffffffffffffffffffffff161461289f57600080fd5b82600690805190602001906128b5929190613ac9565b5081600290805190602001906128cc929190613ac9565b5080600390805190602001906128e3929190613ac9565b50505050565b6008836040518082805190602001908083835b6020831061291f57805182526020820191506020810190506020830392506128fc565b6001836020036101000a038019825116818451168082178552505050505050905001915050908152602001604051809103902060050160009054906101000a900460ff1661296c57600080fd5b816008846040518082805190602001908083835b602083106129a35780518252602082019150602081019050602083039250612980565b6001836020036101000a038019825116818451168082178552505050505050905001915050908152602001604051809103902060010181905550600482908060018154018082558091505090600182039060005260206000200160009091929091909150555060016005540160058190555060016008846040518082805190602001908083835b60208310612a4d5780518252602082019150602081019050602083039250612a2a565b6001836020036101000a038019825116818451168082178552505050505050905001915050908152602001604051809103902060030160006101000a81548160ff021916908315150217905550336008846040518082805190602001908083835b60208310612ad15780518252602082019150602081019050602083039250612aae565b6001836020036101000a038019825116818451168082178552505050505050905001915050908152602001604051809103902060030160016101000a81548173ffffffffffffffffffffffffffffffffffffffff021916908373ffffffffffffffffffffffffffffffffffffffff160217905550806008846040518082805190602001908083835b60208310612b7c5780518252602082019150602081019050602083039250612b59565b6001836020036101000a03801982511681845116808217855250505050505090500191505090815260200160405180910390206004019080519060200190612bc5929190613ac9565b50505050565b60606000806000806000606080612c90600b8a81548110612be857fe5b906000526020600020018054600181600116156101000203166002900480601f016020809104026020016040519081016040528092919081815260200182805460018160011615610100020316600290048015612c865780601f10612c5b57610100808354040283529160200191612c86565b820191906000526020600020905b815481529060010190602001808311612c6957829003601f168201915b5050505050613678565b97509750975097509750975097509750919395975091939597565b606060006060600080606060006008886040518082805190602001908083835b60208310612cee5780518252602082019150602081019050602083039250612ccb565b6001836020036101000a03801982511681845116808217855250505050505090500191505090815260200160405180910390206000016008896040518082805190602001908083835b60208310612d5a5780518252602082019150602081019050602083039250612d37565b6001836020036101000a03801982511681845116808217855250505050505090500191505090815260200160405180910390206001015460088a6040518082805190602001908083835b60208310612dc75780518252602082019150602081019050602083039250612da4565b6001836020036101000a038019825116818451168082178552505050505050905001915050908152602001604051809103902060020160088b6040518082805190602001908083835b60208310612e335780518252602082019150602081019050602083039250612e10565b6001836020036101000a038019825116818451168082178552505050505050905001915050908152602001604051809103902060030160009054906101000a900460ff1660088c6040518082805190602001908083835b60208310612ead5780518252602082019150602081019050602083039250612e8a565b6001836020036101000a038019825116818451168082178552505050505050905001915050908152602001604051809103902060030160019054906101000a900473ffffffffffffffffffffffffffffffffffffffff1660088d6040518082805190602001908083835b60208310612f3a5780518252602082019150602081019050602083039250612f17565b6001836020036101000a038019825116818451168082178552505050505050905001915050908152602001604051809103902060040160088e6040518082805190602001908083835b60208310612fa65780518252602082019150602081019050602083039250612f83565b6001836020036101000a038019825116818451168082178552505050505050905001915050908152602001604051809103902060050160009054906101000a900460ff16868054600181600116156101000203166002900480601f01602080910402602001604051908101604052809291908181526020018280546001816001161561010002031660029004801561307f5780601f106130545761010080835404028352916020019161307f565b820191906000526020600020905b81548152906001019060200180831161306257829003601f168201915b50505050509650848054600181600116156101000203166002900480601f01602080910402602001604051908101604052809291908181526020018280546001816001161561010002031660029004801561311b5780601f106130f05761010080835404028352916020019161311b565b820191906000526020600020905b8154815290600101906020018083116130fe57829003601f168201915b50505050509450818054600181600116156101000203166002900480601f0160208091040260200160405190810160405280929190818152602001828054600181600116156101000203166002900480156131b75780601f1061318c576101008083540402835291602001916131b7565b820191906000526020600020905b81548152906001019060200180831161319a57829003601f168201915b505050505091509650965096509650965096509650919395979092949650565b60606000606080600060606000600c60008973ffffffffffffffffffffffffffffffffffffffff1673ffffffffffffffffffffffffffffffffffffffff168152602001908152602001600020600001600c60008a73ffffffffffffffffffffffffffffffffffffffff1673ffffffffffffffffffffffffffffffffffffffff16815260200190815260200160002060010160009054906101000a900473ffffffffffffffffffffffffffffffffffffffff16600c60008b73ffffffffffffffffffffffffffffffffffffffff1673ffffffffffffffffffffffffffffffffffffffff168152602001908152602001600020600201600c60008c73ffffffffffffffffffffffffffffffffffffffff1673ffffffffffffffffffffffffffffffffffffffff168152602001908152602001600020600301600c60008d73ffffffffffffffffffffffffffffffffffffffff1673ffffffffffffffffffffffffffffffffffffffff16815260200190815260200160002060040160009054906101000a900460ff16600c60008e73ffffffffffffffffffffffffffffffffffffffff1673ffffffffffffffffffffffffffffffffffffffff168152602001908152602001600020600501600c60008f73ffffffffffffffffffffffffffffffffffffffff1673ffffffffffffffffffffffffffffffffffffffff16815260200190815260200160002060060160009054906101000a900460ff16868054600181600116156101000203166002900480601f0160208091040260200160405190810160405280929190818152602001828054600181600116156101000203166002900480156134845780601f1061345957610100808354040283529160200191613484565b820191906000526020600020905b81548152906001019060200180831161346757829003601f168201915b50505050509650848054600181600116156101000203166002900480601f0160208091040260200160405190810160405280929190818152602001828054600181600116156101000203166002900480156135205780601f106134f557610100808354040283529160200191613520565b820191906000526020600020905b81548152906001019060200180831161350357829003601f168201915b50505050509450838054600181600116156101000203166002900480601f0160208091040260200160405190810160405280929190818152602001828054600181600116156101000203166002900480156135bc5780601f10613591576101008083540402835291602001916135bc565b820191906000526020600020905b81548152906001019060200180831161359f57829003601f168201915b50505050509350818054600181600116156101000203166002900480601f0160208091040260200160405190810160405280929190818152602001828054600181600116156101000203166002900480156136585780601f1061362d57610100808354040283529160200191613658565b820191906000526020600020905b81548152906001019060200180831161363b57829003601f168201915b505050505091509650965096509650965096509650919395979092949650565b6060600080600080600060608061368d6139e8565b600a8a6040518082805190602001908083835b602083106136c357805182526020820191506020810190506020830392506136a0565b6001836020036101000a038019825116818451168082178552505050505050905001915050908152602001604051809103902060405180610100016040529081600082018054600181600116156101000203166002900480601f01602080910402602001604051908101604052809291908181526020018280546001816001161561010002031660029004801561379b5780601f106137705761010080835404028352916020019161379b565b820191906000526020600020905b81548152906001019060200180831161377e57829003601f168201915b505050505081526020016001820160009054906101000a900473ffffffffffffffffffffffffffffffffffffffff1673ffffffffffffffffffffffffffffffffffffffff1673ffffffffffffffffffffffffffffffffffffffff168152602001600282015481526020016003820160009054906101000a900460ff161515151581526020016003820160019054906101000a900460ff161515151581526020016003820160029054906101000a900460ff16151515158152602001600482018054600181600116156101000203166002900480601f0160208091040260200160405190810160405280929190818152602001828054600181600116156101000203166002900480156138ee5780601f106138c3576101008083540402835291602001916138ee565b820191906000526020600020905b8154815290600101906020018083116138d157829003601f168201915b50505050508152602001600582018054600181600116156101000203166002900480601f0160208091040260200160405190810160405280929190818152602001828054600181600116156101000203166002900480156139905780601f1061396557610100808354040283529160200191613990565b820191906000526020600020905b81548152906001019060200180831161397357829003601f168201915b5050505050815250509050806000015181602001518260400151836060015184608001518560a001518660e001518760c001518797508191508090509850985098509850985098509850985050919395975091939597565b60405180610100016040528060608152602001600073ffffffffffffffffffffffffffffffffffffffff1681526020016000815260200160001515815260200160001515815260200160001515815260200160608152602001606081525090565b828054600181600116156101000203166002900490600052602060002090601f016020900481019282601f10613a8a57805160ff1916838001178555613ab8565b82800160010185558215613ab8579182015b82811115613ab7578251825591602001919060010190613a9c565b5b509050613ac59190613bf7565b5090565b828054600181600116156101000203166002900490600052602060002090601f016020900481019282601f10613b0a57805160ff1916838001178555613b38565b82800160010185558215613b38579182015b82811115613b37578251825591602001919060010190613b1c565b5b509050613b459190613bf7565b5090565b6040518060e00160405280606081526020016000815260200160608152602001600015158152602001600073ffffffffffffffffffffffffffffffffffffffff168152602001606081526020016000151581525090565b6040518060e0016040528060608152602001600073ffffffffffffffffffffffffffffffffffffffff1681526020016060815260200160608152602001600015158152602001606081526020016000151581525090565b613c1991905b80821115613c15576000816000905550600101613bfd565b5090565b9056fea265627a7a72315820bbed099adefac235cf30a4abbea0568256509f8d6f2a44c899d190b7aa80646264736f6c63430005100032",
  "source": "pragma solidity >=0.5.0 <0.9.0;\r\n\r\ncontract Employee {\r\n    address admin;\r\n    address employee_address;\r\n    string description;\r\n    string location;\r\n    uint256[] public overallEndorsement;\r\n    uint256 endorsecount;\r\n    string name;\r\n    string codeforces_username;\r\n\r\n    constructor(\r\n        address _admin,\r\n        address _employee_address,\r\n        string memory _name,\r\n        string memory _description,\r\n        string memory _location\r\n    ) public {\r\n        admin = _admin;\r\n        name = _name;\r\n        employee_address = _employee_address;\r\n        description = _description;\r\n        location = _location;\r\n        endorsecount = 0;\r\n        codeforces_username = \"akashghadge\";\r\n    }\r\n\r\n    modifier OnlyEmployee() {\r\n        require(msg.sender == employee_address);\r\n        _;\r\n    }\r\n\r\n    function getEmployeeInfo()\r\n        public\r\n        view\r\n        returns (\r\n            address,\r\n            string memory,\r\n            string memory,\r\n            string memory,\r\n            uint256,\r\n            uint256\r\n        )\r\n    {\r\n        return (employee_address, name, description, location, 0, endorsecount);\r\n    }\r\n\r\n    function editInfo(\r\n        string memory _name,\r\n        string memory _descrip,\r\n        string memory _location\r\n    ) public OnlyEmployee {\r\n        name = _name;\r\n        description = _descrip;\r\n        location = _location;\r\n    }\r\n\r\n    /*********************************************************SKILLS SECTION**********************************************************/\r\n\r\n    struct skillInfo {\r\n        string name;\r\n        uint256 overall_percentage;\r\n        string experience;\r\n        bool endorsed;\r\n        address endorser_address;\r\n        string review;\r\n        bool visible;\r\n    }\r\n\r\n    mapping(string => skillInfo) skillmap;\r\n    string[] skills;\r\n\r\n    function addSkill(string memory _name, string memory _experience)\r\n        public\r\n        OnlyEmployee\r\n    {\r\n        skillInfo memory employeeSkillSet;\r\n        employeeSkillSet.name = _name;\r\n        employeeSkillSet.experience = _experience;\r\n        employeeSkillSet.overall_percentage = 0;\r\n        employeeSkillSet.endorsed = false;\r\n        employeeSkillSet.visible = true;\r\n        skillmap[_name] = employeeSkillSet;\r\n        skills.push(_name);\r\n    }\r\n\r\n    function endorseSkill(\r\n        string memory _name,\r\n        uint256 _overall_percentage,\r\n        string memory _review\r\n    ) public {\r\n        require(skillmap[_name].visible);\r\n        skillmap[_name].overall_percentage = _overall_percentage;\r\n        overallEndorsement.push(_overall_percentage);\r\n        endorsecount = endorsecount + 1;\r\n        skillmap[_name].endorsed = true;\r\n        skillmap[_name].endorser_address = msg.sender;\r\n        skillmap[_name].review = _review;\r\n    }\r\n\r\n    function getSkillByName(string memory _name)\r\n        private\r\n        view\r\n        returns (\r\n            string memory,\r\n            uint256,\r\n            string memory,\r\n            bool,\r\n            address,\r\n            string memory,\r\n            bool\r\n        )\r\n    {\r\n        return (\r\n            skillmap[_name].name,\r\n            skillmap[_name].overall_percentage,\r\n            skillmap[_name].experience,\r\n            skillmap[_name].endorsed,\r\n            skillmap[_name].endorser_address,\r\n            skillmap[_name].review,\r\n            skillmap[_name].visible\r\n        );\r\n    }\r\n\r\n    function getSkillCount() public view returns (uint256) {\r\n        return skills.length;\r\n    }\r\n\r\n    function getSkillByIndex(uint256 _index)\r\n        public\r\n        view\r\n        returns (\r\n            string memory,\r\n            uint256,\r\n            string memory,\r\n            bool,\r\n            address,\r\n            string memory,\r\n            bool\r\n        )\r\n    {\r\n        return getSkillByName(skills[_index]);\r\n    }\r\n\r\n    function deleteSkill(string memory _name) public OnlyEmployee {\r\n        skillmap[_name].visible = !skillmap[_name].visible;\r\n    }\r\n\r\n    /*********************************************************CERTIFICATION SECTION**********************************************************/\r\n\r\n    struct certificationInfo {\r\n        string name;\r\n        address organization;\r\n        uint256 score;\r\n        bool endorsed;\r\n        bool visible;\r\n        bool isScored;\r\n        string certificate_url;\r\n        string certificate_type;\r\n    }\r\n\r\n    mapping(string => certificationInfo) certificationmap;\r\n    string[] certifications;\r\n\r\n    function addCertification(\r\n        string memory _name,\r\n        address _organization,\r\n        uint256 _score,\r\n        bool _isScored,\r\n        string memory _certificate_url,\r\n        string memory _certificate_type\r\n    ) public OnlyEmployee {\r\n        certificationInfo memory newcertificationInfo;\r\n        newcertificationInfo.name = _name;\r\n        newcertificationInfo.organization = _organization;\r\n        newcertificationInfo.score = _score;\r\n        newcertificationInfo.endorsed = false;\r\n        newcertificationInfo.visible = true;\r\n        newcertificationInfo.isScored = _isScored;\r\n        newcertificationInfo.certificate_type = _certificate_type;\r\n        newcertificationInfo.certificate_url = _certificate_url;\r\n        certificationmap[_name] = newcertificationInfo;\r\n        certifications.push(_name);\r\n    }\r\n\r\n    function endorseCertification(string memory _name) public {\r\n        require(msg.sender == certificationmap[_name].organization);\r\n        certificationmap[_name].endorsed = true;\r\n    }\r\n\r\n    function getCertificationByName(string memory _name)\r\n        private\r\n        view\r\n        returns (\r\n            string memory,\r\n            address,\r\n            uint256,\r\n            bool,\r\n            bool,\r\n            bool,\r\n            string memory,\r\n            string memory\r\n        )\r\n    {\r\n        certificationInfo memory c = certificationmap[_name];\r\n        return (\r\n            c.name,\r\n            c.organization,\r\n            c.score,\r\n            c.endorsed,\r\n            c.visible,\r\n            c.isScored,\r\n            c.certificate_type,\r\n            c.certificate_url\r\n        );\r\n    }\r\n\r\n    function getCertificationCount() public view returns (uint256) {\r\n        return certifications.length;\r\n    }\r\n\r\n    function getCertificationByIndex(uint256 _index)\r\n        public\r\n        view\r\n        returns (\r\n            string memory,\r\n            address,\r\n            uint256,\r\n            bool,\r\n            bool,\r\n            bool,\r\n            string memory,\r\n            string memory\r\n        )\r\n    {\r\n        return getCertificationByName(certifications[_index]);\r\n    }\r\n\r\n    function deleteCertification(string memory _name) public OnlyEmployee {\r\n        certificationmap[_name].visible = !certificationmap[_name].visible;\r\n    }\r\n\r\n    /********************************************************************Work Experience Section********************************************************************/\r\n\r\n    struct workexpInfo {\r\n        string role;\r\n        address organization;\r\n        string startdate;\r\n        string enddate;\r\n        bool endorsed;\r\n        string description;\r\n        bool visible;\r\n    }\r\n\r\n    mapping(address => workexpInfo) workexpmap;\r\n    address[] workexps;\r\n\r\n    function addWorkExp(\r\n        string memory _role,\r\n        address _organization,\r\n        string memory _startdate,\r\n        string memory _enddate,\r\n        string memory _description\r\n    ) public OnlyEmployee {\r\n        workexpInfo memory newworkexp;\r\n        newworkexp.role = _role;\r\n        newworkexp.organization = _organization;\r\n        newworkexp.startdate = _startdate;\r\n        newworkexp.enddate = _enddate;\r\n        newworkexp.endorsed = false;\r\n        newworkexp.visible = true;\r\n        newworkexp.description = _description;\r\n        workexpmap[_organization] = newworkexp;\r\n        workexps.push(_organization);\r\n    }\r\n\r\n    function endorseWorkExp() public {\r\n        require(workexpmap[msg.sender].organization != address(0x0));\r\n        workexpmap[msg.sender].endorsed = true;\r\n    }\r\n\r\n    function getWorkExpByAddress(address _organization)\r\n        private\r\n        view\r\n        returns (\r\n            string memory,\r\n            address,\r\n            string memory,\r\n            string memory,\r\n            bool,\r\n            string memory,\r\n            bool\r\n        )\r\n    {\r\n        return (\r\n            workexpmap[_organization].role,\r\n            workexpmap[_organization].organization,\r\n            workexpmap[_organization].startdate,\r\n            workexpmap[_organization].enddate,\r\n            workexpmap[_organization].endorsed,\r\n            workexpmap[_organization].description,\r\n            workexpmap[_organization].visible\r\n        );\r\n    }\r\n\r\n    function getWorkExpCount() public view returns (uint256) {\r\n        return workexps.length;\r\n    }\r\n\r\n    function getWorkExpByIndex(uint256 _index)\r\n        public\r\n        view\r\n        returns (\r\n            string memory,\r\n            address,\r\n            string memory,\r\n            string memory,\r\n            bool,\r\n            string memory,\r\n            bool\r\n        )\r\n    {\r\n        return getWorkExpByAddress(workexps[_index]);\r\n    }\r\n\r\n    function deleteWorkExp(address org) public OnlyEmployee {\r\n        workexpmap[org].visible = false;\r\n    }\r\n\r\n    /********************************************************************Codeforces Section********************************************************************/\r\n\r\n    function setCodeforcesUsername(string memory _newUsername)\r\n        public\r\n        OnlyEmployee\r\n    {\r\n        codeforces_username = _newUsername;\r\n    }\r\n\r\n    function getCodeforcesUsername() public view returns (string memory) {\r\n        return (codeforces_username);\r\n    }\r\n}\r\n",
  "sourcePath": "D:\\BE Project\\skillset-verified\\src\\contracts\\Employee.sol",
  "compiler": {
    "name": "solc",
    "version": "0.5.16+commit.9c3226ce.Emscripten.clang"
  },
  "schemaVersion": "3.4.10",
  "updatedAt": "2023-02-28T17:17:27.838Z",
  "devdoc": {
    "methods": {}
  },
  "userdoc": {
    "methods": {
      "setCodeforcesUsername(string)": {
        "notice": "******************************************************************Codeforces Section*******************************************************************"
      }
    }
  }
}