{
  "contractName": "Employee",
  "abi": [
    {
      "inputs": [
        {
          "internalType": "address",
          "name": "_admin",
          "type": "address"
        },
        {
          "internalType": "address",
          "name": "_employee_address",
          "type": "address"
        },
        {
          "internalType": "string",
          "name": "_name",
          "type": "string"
        },
        {
          "internalType": "string",
          "name": "_description",
          "type": "string"
        },
        {
          "internalType": "string",
          "name": "_location",
          "type": "string"
        }
      ],
      "payable": false,
      "stateMutability": "nonpayable",
      "type": "constructor"
    },
    {
      "constant": true,
      "inputs": [
        {
          "internalType": "uint256",
          "name": "",
          "type": "uint256"
        }
      ],
      "name": "overallEndorsement",
      "outputs": [
        {
          "internalType": "uint256",
          "name": "",
          "type": "uint256"
        }
      ],
      "payable": false,
      "stateMutability": "view",
      "type": "function"
    },
    {
      "constant": true,
      "inputs": [],
      "name": "getEmployeeInfo",
      "outputs": [
        {
          "internalType": "address",
          "name": "",
          "type": "address"
        },
        {
          "internalType": "string",
          "name": "",
          "type": "string"
        },
        {
          "internalType": "string",
          "name": "",
          "type": "string"
        },
        {
          "internalType": "string",
          "name": "",
          "type": "string"
        },
        {
          "internalType": "uint256",
          "name": "",
          "type": "uint256"
        },
        {
          "internalType": "uint256",
          "name": "",
          "type": "uint256"
        }
      ],
      "payable": false,
      "stateMutability": "view",
      "type": "function"
    },
    {
      "constant": false,
      "inputs": [
        {
          "internalType": "string",
          "name": "_name",
          "type": "string"
        },
        {
          "internalType": "string",
          "name": "_descrip",
          "type": "string"
        },
        {
          "internalType": "string",
          "name": "_location",
          "type": "string"
        }
      ],
      "name": "editInfo",
      "outputs": [],
      "payable": false,
      "stateMutability": "nonpayable",
      "type": "function"
    },
    {
      "constant": false,
      "inputs": [
        {
          "internalType": "string",
          "name": "_name",
          "type": "string"
        },
        {
          "internalType": "string",
          "name": "_experience",
          "type": "string"
        }
      ],
      "name": "addSkill",
      "outputs": [],
      "payable": false,
      "stateMutability": "nonpayable",
      "type": "function"
    },
    {
      "constant": false,
      "inputs": [
        {
          "internalType": "string",
          "name": "_name",
          "type": "string"
        },
        {
          "internalType": "uint256",
          "name": "_overall_percentage",
          "type": "uint256"
        },
        {
          "internalType": "string",
          "name": "_review",
          "type": "string"
        }
      ],
      "name": "endorseSkill",
      "outputs": [],
      "payable": false,
      "stateMutability": "nonpayable",
      "type": "function"
    },
    {
      "constant": true,
      "inputs": [],
      "name": "getSkillCount",
      "outputs": [
        {
          "internalType": "uint256",
          "name": "",
          "type": "uint256"
        }
      ],
      "payable": false,
      "stateMutability": "view",
      "type": "function"
    },
    {
      "constant": true,
      "inputs": [
        {
          "internalType": "uint256",
          "name": "_index",
          "type": "uint256"
        }
      ],
      "name": "getSkillByIndex",
      "outputs": [
        {
          "internalType": "string",
          "name": "",
          "type": "string"
        },
        {
          "internalType": "uint256",
          "name": "",
          "type": "uint256"
        },
        {
          "internalType": "string",
          "name": "",
          "type": "string"
        },
        {
          "internalType": "bool",
          "name": "",
          "type": "bool"
        },
        {
          "internalType": "address",
          "name": "",
          "type": "address"
        },
        {
          "internalType": "string",
          "name": "",
          "type": "string"
        },
        {
          "internalType": "bool",
          "name": "",
          "type": "bool"
        }
      ],
      "payable": false,
      "stateMutability": "view",
      "type": "function"
    },
    {
      "constant": false,
      "inputs": [
        {
          "internalType": "string",
          "name": "_name",
          "type": "string"
        }
      ],
      "name": "deleteSkill",
      "outputs": [],
      "payable": false,
      "stateMutability": "nonpayable",
      "type": "function"
    },
    {
      "constant": false,
      "inputs": [
        {
          "internalType": "string",
          "name": "_name",
          "type": "string"
        },
        {
          "internalType": "address",
          "name": "_organization",
          "type": "address"
        },
        {
          "internalType": "uint256",
          "name": "_score",
          "type": "uint256"
        }
      ],
      "name": "addCertification",
      "outputs": [],
      "payable": false,
      "stateMutability": "nonpayable",
      "type": "function"
    },
    {
      "constant": false,
      "inputs": [
        {
          "internalType": "string",
          "name": "_name",
          "type": "string"
        }
      ],
      "name": "endorseCertification",
      "outputs": [],
      "payable": false,
      "stateMutability": "nonpayable",
      "type": "function"
    },
    {
      "constant": true,
      "inputs": [],
      "name": "getCertificationCount",
      "outputs": [
        {
          "internalType": "uint256",
          "name": "",
          "type": "uint256"
        }
      ],
      "payable": false,
      "stateMutability": "view",
      "type": "function"
    },
    {
      "constant": true,
      "inputs": [
        {
          "internalType": "uint256",
          "name": "_index",
          "type": "uint256"
        }
      ],
      "name": "getCertificationByIndex",
      "outputs": [
        {
          "internalType": "string",
          "name": "",
          "type": "string"
        },
        {
          "internalType": "address",
          "name": "",
          "type": "address"
        },
        {
          "internalType": "uint256",
          "name": "",
          "type": "uint256"
        },
        {
          "internalType": "bool",
          "name": "",
          "type": "bool"
        },
        {
          "internalType": "bool",
          "name": "",
          "type": "bool"
        }
      ],
      "payable": false,
      "stateMutability": "view",
      "type": "function"
    },
    {
      "constant": false,
      "inputs": [
        {
          "internalType": "string",
          "name": "_name",
          "type": "string"
        }
      ],
      "name": "deleteCertification",
      "outputs": [],
      "payable": false,
      "stateMutability": "nonpayable",
      "type": "function"
    },
    {
      "constant": false,
      "inputs": [
        {
          "internalType": "string",
          "name": "_role",
          "type": "string"
        },
        {
          "internalType": "address",
          "name": "_organization",
          "type": "address"
        },
        {
          "internalType": "string",
          "name": "_startdate",
          "type": "string"
        },
        {
          "internalType": "string",
          "name": "_enddate",
          "type": "string"
        },
        {
          "internalType": "string",
          "name": "_description",
          "type": "string"
        }
      ],
      "name": "addWorkExp",
      "outputs": [],
      "payable": false,
      "stateMutability": "nonpayable",
      "type": "function"
    },
    {
      "constant": false,
      "inputs": [],
      "name": "endorseWorkExp",
      "outputs": [],
      "payable": false,
      "stateMutability": "nonpayable",
      "type": "function"
    },
    {
      "constant": true,
      "inputs": [],
      "name": "getWorkExpCount",
      "outputs": [
        {
          "internalType": "uint256",
          "name": "",
          "type": "uint256"
        }
      ],
      "payable": false,
      "stateMutability": "view",
      "type": "function"
    },
    {
      "constant": true,
      "inputs": [
        {
          "internalType": "uint256",
          "name": "_index",
          "type": "uint256"
        }
      ],
      "name": "getWorkExpByIndex",
      "outputs": [
        {
          "internalType": "string",
          "name": "",
          "type": "string"
        },
        {
          "internalType": "address",
          "name": "",
          "type": "address"
        },
        {
          "internalType": "string",
          "name": "",
          "type": "string"
        },
        {
          "internalType": "string",
          "name": "",
          "type": "string"
        },
        {
          "internalType": "bool",
          "name": "",
          "type": "bool"
        },
        {
          "internalType": "string",
          "name": "",
          "type": "string"
        },
        {
          "internalType": "bool",
          "name": "",
          "type": "bool"
        }
      ],
      "payable": false,
      "stateMutability": "view",
      "type": "function"
    },
    {
      "constant": false,
      "inputs": [
        {
          "internalType": "address",
          "name": "org",
          "type": "address"
        }
      ],
      "name": "deleteWorkExp",
      "outputs": [],
      "payable": false,
      "stateMutability": "nonpayable",
      "type": "function"
    },
    {
      "constant": false,
      "inputs": [
        {
          "internalType": "string",
          "name": "_newUsername",
          "type": "string"
        }
      ],
      "name": "setCodeforcesUsername",
      "outputs": [],
      "payable": false,
      "stateMutability": "nonpayable",
      "type": "function"
    },
    {
      "constant": true,
      "inputs": [],
      "name": "getCodeforcesUsername",
      "outputs": [
        {
          "internalType": "string",
          "name": "",
          "type": "string"
        }
      ],
      "payable": false,
      "stateMutability": "view",
      "type": "function"
    }
  ],
  "bytecode": "0x60806040523480156200001157600080fd5b5060405162003da338038062003da3833981810160405260a08110156200003757600080fd5b810190808051906020019092919080519060200190929190805160405193929190846401000000008211156200006c57600080fd5b838201915060208201858111156200008357600080fd5b8251866001820283011164010000000082111715620000a157600080fd5b8083526020830192505050908051906020019080838360005b83811015620000d7578082015181840152602081019050620000ba565b50505050905090810190601f168015620001055780820380516001836020036101000a031916815260200191505b50604052602001805160405193929190846401000000008211156200012957600080fd5b838201915060208201858111156200014057600080fd5b82518660018202830111640100000000821117156200015e57600080fd5b8083526020830192505050908051906020019080838360005b838110156200019457808201518184015260208101905062000177565b50505050905090810190601f168015620001c25780820380516001836020036101000a031916815260200191505b5060405260200180516040519392919084640100000000821115620001e657600080fd5b83820191506020820185811115620001fd57600080fd5b82518660018202830111640100000000821117156200021b57600080fd5b8083526020830192505050908051906020019080838360005b838110156200025157808201518184015260208101905062000234565b50505050905090810190601f1680156200027f5780820380516001836020036101000a031916815260200191505b50604052505050846000806101000a81548173ffffffffffffffffffffffffffffffffffffffff021916908373ffffffffffffffffffffffffffffffffffffffff1602179055508260069080519060200190620002de929190620003b3565b5083600160006101000a81548173ffffffffffffffffffffffffffffffffffffffff021916908373ffffffffffffffffffffffffffffffffffffffff160217905550816002908051906020019062000338929190620003b3565b50806003908051906020019062000351929190620003b3565b5060006005819055506040518060400160405280600b81526020017f616b61736867686164676500000000000000000000000000000000000000000081525060079080519060200190620003a7929190620003b3565b50505050505062000462565b828054600181600116156101000203166002900490600052602060002090601f016020900481019282601f10620003f657805160ff191683800117855562000427565b8280016001018555821562000427579182015b828111156200042657825182559160200191906001019062000409565b5b5090506200043691906200043a565b5090565b6200045f91905b808211156200045b57600081600090555060010162000441565b5090565b90565b61393180620004726000396000f3fe608060405234801561001057600080fd5b506004361061012c5760003560e01c8063cf6431c6116100ad578063eda3467c11610071578063eda3467c14610ca5578063f1d9efb214610d60578063fc017f2514611000578063fdb10361146111e9578063fee7989e146113455761012c565b8063cf6431c614610765578063d305aa2214610820578063d57e0ad6146108db578063d862ae8714610b0f578063e260175114610c615761012c565b806344f034ae116100f457806344f034ae1461047a5780637b1d2d00146104845780637c067d8d1461056957806394fb3da7146105ab578063a3e3bf7d146105c95761012c565b806305f53b29146101315780632186879c1461014f5780632a030e9b1461020a578063444fc6621461028d57806344afd1341461045c575b600080fd5b61013961143c565b6040518082815260200191505060405180910390f35b6102086004803603602081101561016557600080fd5b810190808035906020019064010000000081111561018257600080fd5b82018360208201111561019457600080fd5b803590602001918460018302840111640100000000831117156101b657600080fd5b91908080601f016020809104026020016040519081016040528093929190818152602001838380828437600081840152601f19601f820116905080830192505050505050509192919290505050611449565b005b6102126115a4565b6040518080602001828103825283818151815260200191508051906020019080838360005b83811015610252578082015181840152602081019050610237565b50505050905090810190601f16801561027f5780820380516001836020036101000a031916815260200191505b509250505060405180910390f35b6102b9600480360360208110156102a357600080fd5b8101908080359060200190929190505050611646565b604051808060200188815260200180602001871515151581526020018673ffffffffffffffffffffffffffffffffffffffff1673ffffffffffffffffffffffffffffffffffffffff168152602001806020018515151515815260200184810384528b818151815260200191508051906020019080838360005b8381101561034d578082015181840152602081019050610332565b50505050905090810190601f16801561037a5780820380516001836020036101000a031916815260200191505b50848103835289818151815260200191508051906020019080838360005b838110156103b3578082015181840152602081019050610398565b50505050905090810190601f1680156103e05780820380516001836020036101000a031916815260200191505b50848103825286818151815260200191508051906020019080838360005b838110156104195780820151818401526020810190506103fe565b50505050905090810190601f1680156104465780820380516001836020036101000a031916815260200191505b509a505050505050505050505060405180910390f35b610464611724565b6040518082815260200191505060405180910390f35b610482611731565b005b6105676004803603606081101561049a57600080fd5b81019080803590602001906401000000008111156104b757600080fd5b8201836020820111156104c957600080fd5b803590602001918460018302840111640100000000831117156104eb57600080fd5b91908080601f016020809104026020016040519081016040528093929190818152602001838380828437600081840152601f19601f820116905080830192505050505050509192919290803573ffffffffffffffffffffffffffffffffffffffff1690602001909291908035906020019092919050505061182a565b005b6105956004803603602081101561057f57600080fd5b8101908080359060200190929190505050611a59565b6040518082815260200191505060405180910390f35b6105b3611a7a565b6040518082815260200191505060405180910390f35b6105d1611a87565b604051808773ffffffffffffffffffffffffffffffffffffffff1673ffffffffffffffffffffffffffffffffffffffff168152602001806020018060200180602001868152602001858152602001848103845289818151815260200191508051906020019080838360005b8381101561065757808201518184015260208101905061063c565b50505050905090810190601f1680156106845780820380516001836020036101000a031916815260200191505b50848103835288818151815260200191508051906020019080838360005b838110156106bd5780820151818401526020810190506106a2565b50505050905090810190601f1680156106ea5780820380516001836020036101000a031916815260200191505b50848103825287818151815260200191508051906020019080838360005b83811015610723578082015181840152602081019050610708565b50505050905090810190601f1680156107505780820380516001836020036101000a031916815260200191505b50995050505050505050505060405180910390f35b61081e6004803603602081101561077b57600080fd5b810190808035906020019064010000000081111561079857600080fd5b8201836020820111156107aa57600080fd5b803590602001918460018302840111640100000000831117156107cc57600080fd5b91908080601f016020809104026020016040519081016040528093929190818152602001838380828437600081840152601f19601f820116905080830192505050505050509192919290505050611caa565b005b6108d96004803603602081101561083657600080fd5b810190808035906020019064010000000081111561085357600080fd5b82018360208201111561086557600080fd5b8035906020019184600183028401116401000000008311171561088757600080fd5b91908080601f016020809104026020016040519081016040528093929190818152602001838380828437600081840152601f19601f820116905080830192505050505050509192919290505050611df6565b005b610907600480360360208110156108f157600080fd5b8101908080359060200190929190505050611e6a565b60405180806020018873ffffffffffffffffffffffffffffffffffffffff1673ffffffffffffffffffffffffffffffffffffffff168152602001806020018060200187151515158152602001806020018615151515815260200185810385528c818151815260200191508051906020019080838360005b8381101561099957808201518184015260208101905061097e565b50505050905090810190601f1680156109c65780820380516001836020036101000a031916815260200191505b5085810384528a818151815260200191508051906020019080838360005b838110156109ff5780820151818401526020810190506109e4565b50505050905090810190601f168015610a2c5780820380516001836020036101000a031916815260200191505b50858103835289818151815260200191508051906020019080838360005b83811015610a65578082015181840152602081019050610a4a565b50505050905090810190601f168015610a925780820380516001836020036101000a031916815260200191505b50858103825287818151815260200191508051906020019080838360005b83811015610acb578082015181840152602081019050610ab0565b50505050905090810190601f168015610af85780820380516001836020036101000a031916815260200191505b509b50505050505050505050505060405180910390f35b610c5f60048036036040811015610b2557600080fd5b8101908080359060200190640100000000811115610b4257600080fd5b820183602082011115610b5457600080fd5b80359060200191846001830284011164010000000083111715610b7657600080fd5b91908080601f016020809104026020016040519081016040528093929190818152602001838380828437600081840152601f19601f82011690508083019250505050505050919291929080359060200190640100000000811115610bd957600080fd5b820183602082011115610beb57600080fd5b80359060200191846001830284011164010000000083111715610c0d57600080fd5b91908080601f016020809104026020016040519081016040528093929190818152602001838380828437600081840152601f19601f820116905080830192505050505050509192919290505050611ed0565b005b610ca360048036036020811015610c7757600080fd5b81019080803573ffffffffffffffffffffffffffffffffffffffff16906020019092919050505061210a565b005b610d5e60048036036020811015610cbb57600080fd5b8101908080359060200190640100000000811115610cd857600080fd5b820183602082011115610cea57600080fd5b80359060200191846001830284011164010000000083111715610d0c57600080fd5b91908080601f016020809104026020016040519081016040528093929190818152602001838380828437600081840152601f19601f8201169050808301925050505050505091929192905050506121c2565b005b610ffe600480360360a0811015610d7657600080fd5b8101908080359060200190640100000000811115610d9357600080fd5b820183602082011115610da557600080fd5b80359060200191846001830284011164010000000083111715610dc757600080fd5b91908080601f016020809104026020016040519081016040528093929190818152602001838380828437600081840152601f19601f820116905080830192505050505050509192919290803573ffffffffffffffffffffffffffffffffffffffff16906020019092919080359060200190640100000000811115610e4a57600080fd5b820183602082011115610e5c57600080fd5b80359060200191846001830284011164010000000083111715610e7e57600080fd5b91908080601f016020809104026020016040519081016040528093929190818152602001838380828437600081840152601f19601f82011690508083019250505050505050919291929080359060200190640100000000811115610ee157600080fd5b820183602082011115610ef357600080fd5b80359060200191846001830284011164010000000083111715610f1557600080fd5b91908080601f016020809104026020016040519081016040528093929190818152602001838380828437600081840152601f19601f82011690508083019250505050505050919291929080359060200190640100000000811115610f7857600080fd5b820183602082011115610f8a57600080fd5b80359060200191846001830284011164010000000083111715610fac57600080fd5b91908080601f016020809104026020016040519081016040528093929190818152602001838380828437600081840152601f19601f82011690508083019250505050505050919291929050505061231d565b005b6111e76004803603606081101561101657600080fd5b810190808035906020019064010000000081111561103357600080fd5b82018360208201111561104557600080fd5b8035906020019184600183028401116401000000008311171561106757600080fd5b91908080601f016020809104026020016040519081016040528093929190818152602001838380828437600081840152601f19601f820116905080830192505050505050509192919290803590602001906401000000008111156110ca57600080fd5b8201836020820111156110dc57600080fd5b803590602001918460018302840111640100000000831117156110fe57600080fd5b91908080601f016020809104026020016040519081016040528093929190818152602001838380828437600081840152601f19601f8201169050808301925050505050505091929192908035906020019064010000000081111561116157600080fd5b82018360208201111561117357600080fd5b8035906020019184600183028401116401000000008311171561119557600080fd5b91908080601f016020809104026020016040519081016040528093929190818152602001838380828437600081840152601f19601f8201169050808301925050505050505091929192905050506125a9565b005b611343600480360360608110156111ff57600080fd5b810190808035906020019064010000000081111561121c57600080fd5b82018360208201111561122e57600080fd5b8035906020019184600183028401116401000000008311171561125057600080fd5b91908080601f016020809104026020016040519081016040528093929190818152602001838380828437600081840152601f19601f82011690508083019250505050505050919291929080359060200190929190803590602001906401000000008111156112bd57600080fd5b8201836020820111156112cf57600080fd5b803590602001918460018302840111640100000000831117156112f157600080fd5b91908080601f016020809104026020016040519081016040528093929190818152602001838380828437600081840152601f19601f82011690508083019250505050505050919291929050505061264d565b005b6113716004803603602081101561135b57600080fd5b810190808035906020019092919050505061292f565b60405180806020018673ffffffffffffffffffffffffffffffffffffffff1673ffffffffffffffffffffffffffffffffffffffff1681526020018581526020018415151515815260200183151515158152602001828103825287818151815260200191508051906020019080838360005b838110156113fd5780820151818401526020810190506113e2565b50505050905090810190601f16801561142a5780820380516001836020036101000a031916815260200191505b50965050505050505060405180910390f35b6000600980549050905090565b600160009054906101000a900473ffffffffffffffffffffffffffffffffffffffff1673ffffffffffffffffffffffffffffffffffffffff163373ffffffffffffffffffffffffffffffffffffffff16146114a357600080fd5b600a816040518082805190602001908083835b602083106114d957805182526020820191506020810190506020830392506114b6565b6001836020036101000a038019825116818451168082178552505050505050905001915050908152602001604051809103902060030160019054906101000a900460ff1615600a826040518082805190602001908083835b602083106115545780518252602082019150602081019050602083039250611531565b6001836020036101000a038019825116818451168082178552505050505050905001915050908152602001604051809103902060030160016101000a81548160ff02191690831515021790555050565b606060078054600181600116156101000203166002900480601f01602080910402602001604051908101604052809291908181526020018280546001816001161561010002031660029004801561163c5780601f106116115761010080835404028352916020019161163c565b820191906000526020600020905b81548152906001019060200180831161161f57829003601f168201915b5050505050905090565b6060600060606000806060600061170b6009898154811061166357fe5b906000526020600020018054600181600116156101000203166002900480601f0160208091040260200160405190810160405280929190818152602001828054600181600116156101000203166002900480156117015780601f106116d657610100808354040283529160200191611701565b820191906000526020600020905b8154815290600101906020018083116116e457829003601f168201915b5050505050612a02565b9650965096509650965096509650919395979092949650565b6000600b80549050905090565b600073ffffffffffffffffffffffffffffffffffffffff16600c60003373ffffffffffffffffffffffffffffffffffffffff1673ffffffffffffffffffffffffffffffffffffffff16815260200190815260200160002060010160009054906101000a900473ffffffffffffffffffffffffffffffffffffffff1673ffffffffffffffffffffffffffffffffffffffff1614156117cd57600080fd5b6001600c60003373ffffffffffffffffffffffffffffffffffffffff1673ffffffffffffffffffffffffffffffffffffffff16815260200190815260200160002060040160006101000a81548160ff021916908315150217905550565b600160009054906101000a900473ffffffffffffffffffffffffffffffffffffffff1673ffffffffffffffffffffffffffffffffffffffff163373ffffffffffffffffffffffffffffffffffffffff161461188457600080fd5b61188c6136e0565b83816000018190525082816020019073ffffffffffffffffffffffffffffffffffffffff16908173ffffffffffffffffffffffffffffffffffffffff1681525050818160400181815250506000816060019015159081151581525050600181608001901515908115158152505080600a856040518082805190602001908083835b60208310611930578051825260208201915060208101905060208303925061190d565b6001836020036101000a0380198251168184511680821785525050505050509050019150509081526020016040518091039020600082015181600001908051906020019061197f929190613729565b5060208201518160010160006101000a81548173ffffffffffffffffffffffffffffffffffffffff021916908373ffffffffffffffffffffffffffffffffffffffff1602179055506040820151816002015560608201518160030160006101000a81548160ff02191690831515021790555060808201518160030160016101000a81548160ff021916908315150217905550905050600b849080600181540180825580915050906001820390600052602060002001600090919290919091509080519060200190611a519291906137a9565b505050505050565b60048181548110611a6657fe5b906000526020600020016000915090505481565b6000600d80549050905090565b60006060806060600080600160009054906101000a900473ffffffffffffffffffffffffffffffffffffffff166006600260036000600554848054600181600116156101000203166002900480601f016020809104026020016040519081016040528092919081815260200182805460018160011615610100020316600290048015611b545780601f10611b2957610100808354040283529160200191611b54565b820191906000526020600020905b815481529060010190602001808311611b3757829003601f168201915b50505050509450838054600181600116156101000203166002900480601f016020809104026020016040519081016040528092919081815260200182805460018160011615610100020316600290048015611bf05780601f10611bc557610100808354040283529160200191611bf0565b820191906000526020600020905b815481529060010190602001808311611bd357829003601f168201915b50505050509350828054600181600116156101000203166002900480601f016020809104026020016040519081016040528092919081815260200182805460018160011615610100020316600290048015611c8c5780601f10611c6157610100808354040283529160200191611c8c565b820191906000526020600020905b815481529060010190602001808311611c6f57829003601f168201915b50505050509250819150955095509550955095509550909192939495565b600a816040518082805190602001908083835b60208310611ce05780518252602082019150602081019050602083039250611cbd565b6001836020036101000a038019825116818451168082178552505050505050905001915050908152602001604051809103902060010160009054906101000a900473ffffffffffffffffffffffffffffffffffffffff1673ffffffffffffffffffffffffffffffffffffffff163373ffffffffffffffffffffffffffffffffffffffff1614611d6e57600080fd5b6001600a826040518082805190602001908083835b60208310611da65780518252602082019150602081019050602083039250611d83565b6001836020036101000a038019825116818451168082178552505050505050905001915050908152602001604051809103902060030160006101000a81548160ff02191690831515021790555050565b600160009054906101000a900473ffffffffffffffffffffffffffffffffffffffff1673ffffffffffffffffffffffffffffffffffffffff163373ffffffffffffffffffffffffffffffffffffffff1614611e5057600080fd5b8060079080519060200190611e669291906137a9565b5050565b60606000606080600060606000611eb7600d8981548110611e8757fe5b9060005260206000200160009054906101000a900473ffffffffffffffffffffffffffffffffffffffff16612f2e565b9650965096509650965096509650919395979092949650565b600160009054906101000a900473ffffffffffffffffffffffffffffffffffffffff1673ffffffffffffffffffffffffffffffffffffffff163373ffffffffffffffffffffffffffffffffffffffff1614611f2a57600080fd5b611f32613829565b8281600001819052508181604001819052506000816020018181525050600081606001901515908115158152505060018160c0019015159081151581525050806008846040518082805190602001908083835b60208310611fa85780518252602082019150602081019050602083039250611f85565b6001836020036101000a03801982511681845116808217855250505050505090500191505090815260200160405180910390206000820151816000019080519060200190611ff7929190613729565b5060208201518160010155604082015181600201908051906020019061201e929190613729565b5060608201518160030160006101000a81548160ff02191690831515021790555060808201518160030160016101000a81548173ffffffffffffffffffffffffffffffffffffffff021916908373ffffffffffffffffffffffffffffffffffffffff16021790555060a08201518160040190805190602001906120a2929190613729565b5060c08201518160050160006101000a81548160ff02191690831515021790555090505060098390806001815401808255809150509060018203906000526020600020016000909192909190915090805190602001906121039291906137a9565b5050505050565b600160009054906101000a900473ffffffffffffffffffffffffffffffffffffffff1673ffffffffffffffffffffffffffffffffffffffff163373ffffffffffffffffffffffffffffffffffffffff161461216457600080fd5b6000600c60008373ffffffffffffffffffffffffffffffffffffffff1673ffffffffffffffffffffffffffffffffffffffff16815260200190815260200160002060060160006101000a81548160ff02191690831515021790555050565b600160009054906101000a900473ffffffffffffffffffffffffffffffffffffffff1673ffffffffffffffffffffffffffffffffffffffff163373ffffffffffffffffffffffffffffffffffffffff161461221c57600080fd5b6008816040518082805190602001908083835b60208310612252578051825260208201915060208101905060208303925061222f565b6001836020036101000a038019825116818451168082178552505050505050905001915050908152602001604051809103902060050160009054906101000a900460ff16156008826040518082805190602001908083835b602083106122cd57805182526020820191506020810190506020830392506122aa565b6001836020036101000a038019825116818451168082178552505050505050905001915050908152602001604051809103902060050160006101000a81548160ff02191690831515021790555050565b600160009054906101000a900473ffffffffffffffffffffffffffffffffffffffff1673ffffffffffffffffffffffffffffffffffffffff163373ffffffffffffffffffffffffffffffffffffffff161461237757600080fd5b61237f613880565b85816000018190525084816020019073ffffffffffffffffffffffffffffffffffffffff16908173ffffffffffffffffffffffffffffffffffffffff1681525050838160400181905250828160600181905250600081608001901515908115158152505060018160c0019015159081151581525050818160a0018190525080600c60008773ffffffffffffffffffffffffffffffffffffffff1673ffffffffffffffffffffffffffffffffffffffff1681526020019081526020016000206000820151816000019080519060200190612459929190613729565b5060208201518160010160006101000a81548173ffffffffffffffffffffffffffffffffffffffff021916908373ffffffffffffffffffffffffffffffffffffffff16021790555060408201518160020190805190602001906124bd929190613729565b5060608201518160030190805190602001906124da929190613729565b5060808201518160040160006101000a81548160ff02191690831515021790555060a0820151816005019080519060200190612517929190613729565b5060c08201518160060160006101000a81548160ff021916908315150217905550905050600d8590806001815401808255809150509060018203906000526020600020016000909192909190916101000a81548173ffffffffffffffffffffffffffffffffffffffff021916908373ffffffffffffffffffffffffffffffffffffffff16021790555050505050505050565b600160009054906101000a900473ffffffffffffffffffffffffffffffffffffffff1673ffffffffffffffffffffffffffffffffffffffff163373ffffffffffffffffffffffffffffffffffffffff161461260357600080fd5b82600690805190602001906126199291906137a9565b5081600290805190602001906126309291906137a9565b5080600390805190602001906126479291906137a9565b50505050565b6008836040518082805190602001908083835b602083106126835780518252602082019150602081019050602083039250612660565b6001836020036101000a038019825116818451168082178552505050505050905001915050908152602001604051809103902060050160009054906101000a900460ff166126d057600080fd5b816008846040518082805190602001908083835b6020831061270757805182526020820191506020810190506020830392506126e4565b6001836020036101000a038019825116818451168082178552505050505050905001915050908152602001604051809103902060010181905550600482908060018154018082558091505090600182039060005260206000200160009091929091909150555060016005540160058190555060016008846040518082805190602001908083835b602083106127b1578051825260208201915060208101905060208303925061278e565b6001836020036101000a038019825116818451168082178552505050505050905001915050908152602001604051809103902060030160006101000a81548160ff021916908315150217905550336008846040518082805190602001908083835b602083106128355780518252602082019150602081019050602083039250612812565b6001836020036101000a038019825116818451168082178552505050505050905001915050908152602001604051809103902060030160016101000a81548173ffffffffffffffffffffffffffffffffffffffff021916908373ffffffffffffffffffffffffffffffffffffffff160217905550806008846040518082805190602001908083835b602083106128e057805182526020820191506020810190506020830392506128bd565b6001836020036101000a038019825116818451168082178552505050505050905001915050908152602001604051809103902060040190805190602001906129299291906137a9565b50505050565b60606000806000806129ef600b878154811061294757fe5b906000526020600020018054600181600116156101000203166002900480601f0160208091040260200160405190810160405280929190818152602001828054600181600116156101000203166002900480156129e55780601f106129ba576101008083540402835291602001916129e5565b820191906000526020600020905b8154815290600101906020018083116129c857829003601f168201915b50505050506133cf565b9450945094509450945091939590929450565b606060006060600080606060006008886040518082805190602001908083835b60208310612a455780518252602082019150602081019050602083039250612a22565b6001836020036101000a03801982511681845116808217855250505050505090500191505090815260200160405180910390206000016008896040518082805190602001908083835b60208310612ab15780518252602082019150602081019050602083039250612a8e565b6001836020036101000a03801982511681845116808217855250505050505090500191505090815260200160405180910390206001015460088a6040518082805190602001908083835b60208310612b1e5780518252602082019150602081019050602083039250612afb565b6001836020036101000a038019825116818451168082178552505050505050905001915050908152602001604051809103902060020160088b6040518082805190602001908083835b60208310612b8a5780518252602082019150602081019050602083039250612b67565b6001836020036101000a038019825116818451168082178552505050505050905001915050908152602001604051809103902060030160009054906101000a900460ff1660088c6040518082805190602001908083835b60208310612c045780518252602082019150602081019050602083039250612be1565b6001836020036101000a038019825116818451168082178552505050505050905001915050908152602001604051809103902060030160019054906101000a900473ffffffffffffffffffffffffffffffffffffffff1660088d6040518082805190602001908083835b60208310612c915780518252602082019150602081019050602083039250612c6e565b6001836020036101000a038019825116818451168082178552505050505050905001915050908152602001604051809103902060040160088e6040518082805190602001908083835b60208310612cfd5780518252602082019150602081019050602083039250612cda565b6001836020036101000a038019825116818451168082178552505050505050905001915050908152602001604051809103902060050160009054906101000a900460ff16868054600181600116156101000203166002900480601f016020809104026020016040519081016040528092919081815260200182805460018160011615610100020316600290048015612dd65780601f10612dab57610100808354040283529160200191612dd6565b820191906000526020600020905b815481529060010190602001808311612db957829003601f168201915b50505050509650848054600181600116156101000203166002900480601f016020809104026020016040519081016040528092919081815260200182805460018160011615610100020316600290048015612e725780601f10612e4757610100808354040283529160200191612e72565b820191906000526020600020905b815481529060010190602001808311612e5557829003601f168201915b50505050509450818054600181600116156101000203166002900480601f016020809104026020016040519081016040528092919081815260200182805460018160011615610100020316600290048015612f0e5780601f10612ee357610100808354040283529160200191612f0e565b820191906000526020600020905b815481529060010190602001808311612ef157829003601f168201915b505050505091509650965096509650965096509650919395979092949650565b60606000606080600060606000600c60008973ffffffffffffffffffffffffffffffffffffffff1673ffffffffffffffffffffffffffffffffffffffff168152602001908152602001600020600001600c60008a73ffffffffffffffffffffffffffffffffffffffff1673ffffffffffffffffffffffffffffffffffffffff16815260200190815260200160002060010160009054906101000a900473ffffffffffffffffffffffffffffffffffffffff16600c60008b73ffffffffffffffffffffffffffffffffffffffff1673ffffffffffffffffffffffffffffffffffffffff168152602001908152602001600020600201600c60008c73ffffffffffffffffffffffffffffffffffffffff1673ffffffffffffffffffffffffffffffffffffffff168152602001908152602001600020600301600c60008d73ffffffffffffffffffffffffffffffffffffffff1673ffffffffffffffffffffffffffffffffffffffff16815260200190815260200160002060040160009054906101000a900460ff16600c60008e73ffffffffffffffffffffffffffffffffffffffff1673ffffffffffffffffffffffffffffffffffffffff168152602001908152602001600020600501600c60008f73ffffffffffffffffffffffffffffffffffffffff1673ffffffffffffffffffffffffffffffffffffffff16815260200190815260200160002060060160009054906101000a900460ff16868054600181600116156101000203166002900480601f0160208091040260200160405190810160405280929190818152602001828054600181600116156101000203166002900480156131db5780601f106131b0576101008083540402835291602001916131db565b820191906000526020600020905b8154815290600101906020018083116131be57829003601f168201915b50505050509650848054600181600116156101000203166002900480601f0160208091040260200160405190810160405280929190818152602001828054600181600116156101000203166002900480156132775780601f1061324c57610100808354040283529160200191613277565b820191906000526020600020905b81548152906001019060200180831161325a57829003601f168201915b50505050509450838054600181600116156101000203166002900480601f0160208091040260200160405190810160405280929190818152602001828054600181600116156101000203166002900480156133135780601f106132e857610100808354040283529160200191613313565b820191906000526020600020905b8154815290600101906020018083116132f657829003601f168201915b50505050509350818054600181600116156101000203166002900480601f0160208091040260200160405190810160405280929190818152602001828054600181600116156101000203166002900480156133af5780601f10613384576101008083540402835291602001916133af565b820191906000526020600020905b81548152906001019060200180831161339257829003601f168201915b505050505091509650965096509650965096509650919395979092949650565b6060600080600080600a866040518082805190602001908083835b6020831061340d57805182526020820191506020810190506020830392506133ea565b6001836020036101000a0380198251168184511680821785525050505050509050019150509081526020016040518091039020600001600a876040518082805190602001908083835b602083106134795780518252602082019150602081019050602083039250613456565b6001836020036101000a038019825116818451168082178552505050505050905001915050908152602001604051809103902060010160009054906101000a900473ffffffffffffffffffffffffffffffffffffffff16600a886040518082805190602001908083835b6020831061350657805182526020820191506020810190506020830392506134e3565b6001836020036101000a038019825116818451168082178552505050505050905001915050908152602001604051809103902060020154600a896040518082805190602001908083835b602083106135735780518252602082019150602081019050602083039250613550565b6001836020036101000a038019825116818451168082178552505050505050905001915050908152602001604051809103902060030160009054906101000a900460ff16600a8a6040518082805190602001908083835b602083106135ed57805182526020820191506020810190506020830392506135ca565b6001836020036101000a038019825116818451168082178552505050505050905001915050908152602001604051809103902060030160019054906101000a900460ff16848054600181600116156101000203166002900480601f0160208091040260200160405190810160405280929190818152602001828054600181600116156101000203166002900480156136c65780601f1061369b576101008083540402835291602001916136c6565b820191906000526020600020905b8154815290600101906020018083116136a957829003601f168201915b505050505094509450945094509450945091939590929450565b6040518060a0016040528060608152602001600073ffffffffffffffffffffffffffffffffffffffff168152602001600081526020016000151581526020016000151581525090565b828054600181600116156101000203166002900490600052602060002090601f016020900481019282601f1061376a57805160ff1916838001178555613798565b82800160010185558215613798579182015b8281111561379757825182559160200191906001019061377c565b5b5090506137a591906138d7565b5090565b828054600181600116156101000203166002900490600052602060002090601f016020900481019282601f106137ea57805160ff1916838001178555613818565b82800160010185558215613818579182015b828111156138175782518255916020019190600101906137fc565b5b50905061382591906138d7565b5090565b6040518060e00160405280606081526020016000815260200160608152602001600015158152602001600073ffffffffffffffffffffffffffffffffffffffff168152602001606081526020016000151581525090565b6040518060e0016040528060608152602001600073ffffffffffffffffffffffffffffffffffffffff1681526020016060815260200160608152602001600015158152602001606081526020016000151581525090565b6138f991905b808211156138f55760008160009055506001016138dd565b5090565b9056fea265627a7a723158203419c7d1a217052ce7de93dba75b2cc08ed4cd37cb79b71f2867762c3c5a5e2164736f6c63430005100032",
  "source": "pragma solidity >=0.5.0 <0.9.0;\r\n\r\ncontract Employee {\r\n    address admin;\r\n    address employee_address;\r\n    string description;\r\n    string location;\r\n    uint256[] public overallEndorsement;\r\n    uint256 endorsecount;\r\n    string name;\r\n    string codeforces_username;\r\n\r\n    constructor(\r\n        address _admin,\r\n        address _employee_address,\r\n        string memory _name,\r\n        string memory _description,\r\n        string memory _location\r\n    ) public {\r\n        admin = _admin;\r\n        name = _name;\r\n        employee_address = _employee_address;\r\n        description = _description;\r\n        location = _location;\r\n        endorsecount = 0;\r\n        codeforces_username = \"akashghadge\";\r\n    }\r\n\r\n    modifier OnlyEmployee() {\r\n        require(msg.sender == employee_address);\r\n        _;\r\n    }\r\n\r\n    function getEmployeeInfo()\r\n        public\r\n        view\r\n        returns (\r\n            address,\r\n            string memory,\r\n            string memory,\r\n            string memory,\r\n            uint256,\r\n            uint256\r\n        )\r\n    {\r\n        return (employee_address, name, description, location, 0, endorsecount);\r\n    }\r\n\r\n    function editInfo(\r\n        string memory _name,\r\n        string memory _descrip,\r\n        string memory _location\r\n    ) public OnlyEmployee {\r\n        name = _name;\r\n        description = _descrip;\r\n        location = _location;\r\n    }\r\n\r\n    /*********************************************************SKILLS SECTION**********************************************************/\r\n\r\n    struct skillInfo {\r\n        string name;\r\n        uint256 overall_percentage;\r\n        string experience;\r\n        bool endorsed;\r\n        address endorser_address;\r\n        string review;\r\n        bool visible;\r\n    }\r\n\r\n    mapping(string => skillInfo) skillmap;\r\n    string[] skills;\r\n\r\n    function addSkill(string memory _name, string memory _experience)\r\n        public\r\n        OnlyEmployee\r\n    {\r\n        skillInfo memory employeeSkillSet;\r\n        employeeSkillSet.name = _name;\r\n        employeeSkillSet.experience = _experience;\r\n        employeeSkillSet.overall_percentage = 0;\r\n        employeeSkillSet.endorsed = false;\r\n        employeeSkillSet.visible = true;\r\n        skillmap[_name] = employeeSkillSet;\r\n        skills.push(_name);\r\n    }\r\n\r\n    function endorseSkill(\r\n        string memory _name,\r\n        uint256 _overall_percentage,\r\n        string memory _review\r\n    ) public {\r\n        require(skillmap[_name].visible);\r\n        skillmap[_name].overall_percentage = _overall_percentage;\r\n        overallEndorsement.push(_overall_percentage);\r\n        endorsecount = endorsecount + 1;\r\n        skillmap[_name].endorsed = true;\r\n        skillmap[_name].endorser_address = msg.sender;\r\n        skillmap[_name].review = _review;\r\n    }\r\n\r\n    function getSkillByName(string memory _name)\r\n        private\r\n        view\r\n        returns (\r\n            string memory,\r\n            uint256,\r\n            string memory,\r\n            bool,\r\n            address,\r\n            string memory,\r\n            bool\r\n        )\r\n    {\r\n        return (\r\n            skillmap[_name].name,\r\n            skillmap[_name].overall_percentage,\r\n            skillmap[_name].experience,\r\n            skillmap[_name].endorsed,\r\n            skillmap[_name].endorser_address,\r\n            skillmap[_name].review,\r\n            skillmap[_name].visible\r\n        );\r\n    }\r\n\r\n    function getSkillCount() public view returns (uint256) {\r\n        return skills.length;\r\n    }\r\n\r\n    function getSkillByIndex(uint256 _index)\r\n        public\r\n        view\r\n        returns (\r\n            string memory,\r\n            uint256,\r\n            string memory,\r\n            bool,\r\n            address,\r\n            string memory,\r\n            bool\r\n        )\r\n    {\r\n        return getSkillByName(skills[_index]);\r\n    }\r\n\r\n    function deleteSkill(string memory _name) public OnlyEmployee {\r\n        skillmap[_name].visible = !skillmap[_name].visible;\r\n    }\r\n\r\n    /*********************************************************CERTIFICATION SECTION**********************************************************/\r\n\r\n    struct certificationInfo {\r\n        string name;\r\n        address organization;\r\n        uint256 score;\r\n        bool endorsed;\r\n        bool visible;\r\n    }\r\n\r\n    mapping(string => certificationInfo) certificationmap;\r\n    string[] certifications;\r\n\r\n    function addCertification(\r\n        string memory _name,\r\n        address _organization,\r\n        uint256 _score\r\n    ) public OnlyEmployee {\r\n        certificationInfo memory newcertificationInfo;\r\n        newcertificationInfo.name = _name;\r\n        newcertificationInfo.organization = _organization;\r\n        newcertificationInfo.score = _score;\r\n        newcertificationInfo.endorsed = false;\r\n        newcertificationInfo.visible = true;\r\n        certificationmap[_name] = newcertificationInfo;\r\n        certifications.push(_name);\r\n    }\r\n\r\n    function endorseCertification(string memory _name) public {\r\n        require(msg.sender == certificationmap[_name].organization);\r\n        certificationmap[_name].endorsed = true;\r\n    }\r\n\r\n    function getCertificationByName(string memory _name)\r\n        private\r\n        view\r\n        returns (\r\n            string memory,\r\n            address,\r\n            uint256,\r\n            bool,\r\n            bool\r\n        )\r\n    {\r\n        return (\r\n            certificationmap[_name].name,\r\n            certificationmap[_name].organization,\r\n            certificationmap[_name].score,\r\n            certificationmap[_name].endorsed,\r\n            certificationmap[_name].visible\r\n        );\r\n    }\r\n\r\n    function getCertificationCount() public view returns (uint256) {\r\n        return certifications.length;\r\n    }\r\n\r\n    function getCertificationByIndex(uint256 _index)\r\n        public\r\n        view\r\n        returns (\r\n            string memory,\r\n            address,\r\n            uint256,\r\n            bool,\r\n            bool\r\n        )\r\n    {\r\n        return getCertificationByName(certifications[_index]);\r\n    }\r\n\r\n    function deleteCertification(string memory _name) public OnlyEmployee {\r\n        certificationmap[_name].visible = !certificationmap[_name].visible;\r\n    }\r\n\r\n    /********************************************************************Work Experience Section********************************************************************/\r\n\r\n    struct workexpInfo {\r\n        string role;\r\n        address organization;\r\n        string startdate;\r\n        string enddate;\r\n        bool endorsed;\r\n        string description;\r\n        bool visible;\r\n    }\r\n\r\n    mapping(address => workexpInfo) workexpmap;\r\n    address[] workexps;\r\n\r\n    function addWorkExp(\r\n        string memory _role,\r\n        address _organization,\r\n        string memory _startdate,\r\n        string memory _enddate,\r\n        string memory _description\r\n    ) public OnlyEmployee {\r\n        workexpInfo memory newworkexp;\r\n        newworkexp.role = _role;\r\n        newworkexp.organization = _organization;\r\n        newworkexp.startdate = _startdate;\r\n        newworkexp.enddate = _enddate;\r\n        newworkexp.endorsed = false;\r\n        newworkexp.visible = true;\r\n        newworkexp.description = _description;\r\n        workexpmap[_organization] = newworkexp;\r\n        workexps.push(_organization);\r\n    }\r\n\r\n    function endorseWorkExp() public {\r\n        require(workexpmap[msg.sender].organization != address(0x0));\r\n        workexpmap[msg.sender].endorsed = true;\r\n    }\r\n\r\n    function getWorkExpByAddress(address _organization)\r\n        private\r\n        view\r\n        returns (\r\n            string memory,\r\n            address,\r\n            string memory,\r\n            string memory,\r\n            bool,\r\n            string memory,\r\n            bool\r\n        )\r\n    {\r\n        return (\r\n            workexpmap[_organization].role,\r\n            workexpmap[_organization].organization,\r\n            workexpmap[_organization].startdate,\r\n            workexpmap[_organization].enddate,\r\n            workexpmap[_organization].endorsed,\r\n            workexpmap[_organization].description,\r\n            workexpmap[_organization].visible\r\n        );\r\n    }\r\n\r\n    function getWorkExpCount() public view returns (uint256) {\r\n        return workexps.length;\r\n    }\r\n\r\n    function getWorkExpByIndex(uint256 _index)\r\n        public\r\n        view\r\n        returns (\r\n            string memory,\r\n            address,\r\n            string memory,\r\n            string memory,\r\n            bool,\r\n            string memory,\r\n            bool\r\n        )\r\n    {\r\n        return getWorkExpByAddress(workexps[_index]);\r\n    }\r\n\r\n    function deleteWorkExp(address org) public OnlyEmployee {\r\n        workexpmap[org].visible = false;\r\n    }\r\n\r\n    /********************************************************************Codeforces Section********************************************************************/\r\n\r\n    function setCodeforcesUsername(string memory _newUsername)\r\n        public\r\n        OnlyEmployee\r\n    {\r\n        codeforces_username = _newUsername;\r\n    }\r\n\r\n    function getCodeforcesUsername() public view returns (string memory) {\r\n        return (codeforces_username);\r\n    }\r\n}\r\n",
  "sourcePath": "C:\\Users\\ASUS\\Desktop\\BlockChain\\Final-Year-Project-Blockchain\\src\\contracts\\Employee.sol",
  "compiler": {
    "name": "solc",
    "version": "0.5.16+commit.9c3226ce.Emscripten.clang"
  },
  "schemaVersion": "3.4.9",
  "updatedAt": "2022-12-01T08:33:06.387Z",
  "devdoc": {
    "methods": {}
  },
  "userdoc": {
    "methods": {
      "setCodeforcesUsername(string)": {
        "notice": "******************************************************************Codeforces Section*******************************************************************"
      }
    }
  }
}