{
  "contractName": "OrganizationEndorser",
  "abi": [
    {
      "inputs": [
        {
          "internalType": "address",
          "name": "_admin",
          "type": "address"
        },
        {
          "internalType": "address",
          "name": "_organization_address",
          "type": "address"
        },
        {
          "internalType": "string",
          "name": "_name",
          "type": "string"
        },
        {
          "internalType": "string",
          "name": "_description",
          "type": "string"
        },
        {
          "internalType": "string",
          "name": "_location",
          "type": "string"
        }
      ],
      "payable": false,
      "stateMutability": "nonpayable",
      "type": "constructor"
    },
    {
      "constant": true,
      "inputs": [],
      "name": "getOrganizationInfo",
      "outputs": [
        {
          "internalType": "string",
          "name": "",
          "type": "string"
        },
        {
          "internalType": "address",
          "name": "",
          "type": "address"
        },
        {
          "internalType": "string",
          "name": "",
          "type": "string"
        },
        {
          "internalType": "string",
          "name": "",
          "type": "string"
        }
      ],
      "payable": false,
      "stateMutability": "view",
      "type": "function"
    },
    {
      "constant": false,
      "inputs": [
        {
          "internalType": "address",
          "name": "employee_address",
          "type": "address"
        }
      ],
      "name": "addEmployees",
      "outputs": [],
      "payable": false,
      "stateMutability": "nonpayable",
      "type": "function"
    },
    {
      "constant": true,
      "inputs": [],
      "name": "totalEmployees",
      "outputs": [
        {
          "internalType": "uint256",
          "name": "",
          "type": "uint256"
        }
      ],
      "payable": false,
      "stateMutability": "view",
      "type": "function"
    },
    {
      "constant": true,
      "inputs": [
        {
          "internalType": "uint256",
          "name": "index",
          "type": "uint256"
        }
      ],
      "name": "getEmployeeByIndex",
      "outputs": [
        {
          "internalType": "address",
          "name": "",
          "type": "address"
        }
      ],
      "payable": false,
      "stateMutability": "view",
      "type": "function"
    }
  ],
  "bytecode": "0x608060405234801561001057600080fd5b506040516109fa3803806109fa833981810160405260a081101561003357600080fd5b8101908080519060200190929190805190602001909291908051604051939291908464010000000082111561006757600080fd5b8382019150602082018581111561007d57600080fd5b825186600182028301116401000000008211171561009a57600080fd5b8083526020830192505050908051906020019080838360005b838110156100ce5780820151818401526020810190506100b3565b50505050905090810190601f1680156100fb5780820380516001836020036101000a031916815260200191505b506040526020018051604051939291908464010000000082111561011e57600080fd5b8382019150602082018581111561013457600080fd5b825186600182028301116401000000008211171561015157600080fd5b8083526020830192505050908051906020019080838360005b8381101561018557808201518184015260208101905061016a565b50505050905090810190601f1680156101b25780820380516001836020036101000a031916815260200191505b50604052602001805160405193929190846401000000008211156101d557600080fd5b838201915060208201858111156101eb57600080fd5b825186600182028301116401000000008211171561020857600080fd5b8083526020830192505050908051906020019080838360005b8381101561023c578082015181840152602081019050610221565b50505050905090810190601f1680156102695780820380516001836020036101000a031916815260200191505b50604052505050846000806101000a81548173ffffffffffffffffffffffffffffffffffffffff021916908373ffffffffffffffffffffffffffffffffffffffff16021790555082600190805190602001906102c6929190610340565b5083600260006101000a81548173ffffffffffffffffffffffffffffffffffffffff021916908373ffffffffffffffffffffffffffffffffffffffff160217905550816003908051906020019061031e929190610340565b508060049080519060200190610335929190610340565b5050505050506103e5565b828054600181600116156101000203166002900490600052602060002090601f016020900481019282601f1061038157805160ff19168380011785556103af565b828001600101855582156103af579182015b828111156103ae578251825591602001919060010190610393565b5b5090506103bc91906103c0565b5090565b6103e291905b808211156103de5760008160009055506001016103c6565b5090565b90565b610606806103f46000396000f3fe608060405234801561001057600080fd5b506004361061004b5760003560e01c8062ac80951461005057806352b9b9731461009457806359420e48146100b2578063e894d0a214610120575b600080fd5b6100926004803603602081101561006657600080fd5b81019080803573ffffffffffffffffffffffffffffffffffffffff1690602001909291905050506102ae565b005b61009c610371565b6040518082815260200191505060405180910390f35b6100de600480360360208110156100c857600080fd5b810190808035906020019092919050505061037e565b604051808273ffffffffffffffffffffffffffffffffffffffff1673ffffffffffffffffffffffffffffffffffffffff16815260200191505060405180910390f35b6101286103bf565b60405180806020018573ffffffffffffffffffffffffffffffffffffffff1673ffffffffffffffffffffffffffffffffffffffff1681526020018060200180602001848103845288818151815260200191508051906020019080838360005b838110156101a2578082015181840152602081019050610187565b50505050905090810190601f1680156101cf5780820380516001836020036101000a031916815260200191505b50848103835286818151815260200191508051906020019080838360005b838110156102085780820151818401526020810190506101ed565b50505050905090810190601f1680156102355780820380516001836020036101000a031916815260200191505b50848103825285818151815260200191508051906020019080838360005b8381101561026e578082015181840152602081019050610253565b50505050905090810190601f16801561029b5780820380516001836020036101000a031916815260200191505b5097505050505050505060405180910390f35b600260009054906101000a900473ffffffffffffffffffffffffffffffffffffffff1673ffffffffffffffffffffffffffffffffffffffff163373ffffffffffffffffffffffffffffffffffffffff161461030857600080fd5b60058190806001815401808255809150509060018203906000526020600020016000909192909190916101000a81548173ffffffffffffffffffffffffffffffffffffffff021916908373ffffffffffffffffffffffffffffffffffffffff1602179055505050565b6000600580549050905090565b60006005828154811061038d57fe5b9060005260206000200160009054906101000a900473ffffffffffffffffffffffffffffffffffffffff169050919050565b606060006060806001600260009054906101000a900473ffffffffffffffffffffffffffffffffffffffff1660036004838054600181600116156101000203166002900480601f0160208091040260200160405190810160405280929190818152602001828054600181600116156101000203166002900480156104845780601f1061045957610100808354040283529160200191610484565b820191906000526020600020905b81548152906001019060200180831161046757829003601f168201915b50505050509350818054600181600116156101000203166002900480601f0160208091040260200160405190810160405280929190818152602001828054600181600116156101000203166002900480156105205780601f106104f557610100808354040283529160200191610520565b820191906000526020600020905b81548152906001019060200180831161050357829003601f168201915b50505050509150808054600181600116156101000203166002900480601f0160208091040260200160405190810160405280929190818152602001828054600181600116156101000203166002900480156105bc5780601f10610591576101008083540402835291602001916105bc565b820191906000526020600020905b81548152906001019060200180831161059f57829003601f168201915b5050505050905093509350935093509091929356fea265627a7a72315820bd462f74f88bbcf187b362e0d3fb58c2ab6da0d0dd95e07665125cd733e5ee8564736f6c63430005100032",
  "source": "pragma solidity >=0.5.0 <0.9.0;\r\n\r\ncontract OrganizationEndorser {\r\n  address admin;\r\n  string name;\r\n  address organization_address;\r\n  string description;\r\n  string location;\r\n\r\n  constructor(\r\n    address _admin,\r\n    address _organization_address,\r\n    string memory _name,\r\n    string memory _description,\r\n    string memory _location\r\n  ) public {\r\n    admin = _admin;\r\n    name = _name;\r\n    organization_address = _organization_address;\r\n    description = _description;\r\n    location = _location;\r\n  }\r\n\r\n  function getOrganizationInfo()\r\n    public\r\n    view\r\n    returns (\r\n      string memory,\r\n      address,\r\n      string memory,\r\n      string memory\r\n    )\r\n  {\r\n    return (name, organization_address, description, location);\r\n  }\r\n\r\n  address[] allEmployees;\r\n\r\n  function addEmployees(address employee_address) public {\r\n    require(msg.sender == organization_address);\r\n    allEmployees.push(employee_address);\r\n  }\r\n\r\n  function totalEmployees() public view returns (uint256) {\r\n    return allEmployees.length;\r\n  }\r\n\r\n  function getEmployeeByIndex(uint256 index) public view returns (address) {\r\n    return allEmployees[index];\r\n  }\r\n}\r\n",
  "sourcePath": "C:\\Users\\ASUS\\Desktop\\BlockChain\\Final-Year-Project-Blockchain\\src\\contracts\\OrganizationEndorser.sol",
  "compiler": {
    "name": "solc",
    "version": "0.5.16+commit.9c3226ce.Emscripten.clang"
  },
  "schemaVersion": "3.4.9",
  "updatedAt": "2022-11-30T12:24:59.994Z",
  "devdoc": {
    "methods": {}
  },
  "userdoc": {
    "methods": {}
  }
}